:020000040800F2
:10000000B806002001010008793B0008772E00089F
:10001000753B0008150E0008C540000800000000F0
:10002000000000000000000000000000A93B0008E4
:10003000710E0008000000007D3B0008AB3B00088B
:100040001B0100081B0100081B0100081B01000820
:100050001B0100081B0100081B0100081B01000810
:100060001B0100081B0100081B0100081B01000800
:100070001B0100081B0100081B0100081B010008F0
:100080001B0100081B0100081B0100081B010008E0
:100090001B0100081B0100081B0100081B010008D0
:1000A0001B0100081B0100081B0100081B010008C0
:1000B0001B0100081B0100081B0100081B010008B0
:1000C0001B0100081B0100081B0100081B010008A0
:1000D0001B0100081B0100081B0100081B01000890
:1000E0001B0100081B0100081B010008DFF80CD0F1
:1000F00000F018FC004800470D4A0008B806002030
:100100000648804706480047FEE7FEE7FEE7FEE7B1
:10011000FEE7FEE7FEE7FEE7FEE7FEE7373C000806
:10012000ED000008202A04DB203A21FA02F0002129
:10013000704721FA02F3D040C2F1200291400843F7
:1001400019467047D2B201E000F8012B491EFBD2DC
:1001500070470022F6E710B513460A4604461946D2
:10016000FFF7F0FF204610BD0246C9B200E0401C78
:100170000378002BFBD102E003788B4203D0401EB2
:100180009042F9D200207047F0B480EA0102D40F07
:100190004200B2EB410F02D20246084611464A0025
:1001A00042D0C30DDDB2C1F3C752AD1A202D35DAEE
:1001B000C1F3160141F4000204B15242C5F1200618
:1001C00002FA06F12A411044B3EBD05F23D0C4B148
:1001D000012DA0EBC35009DCF0BC4FF0004202EA55
:1001E000C352DBB200F5000000F072BA400000F12B
:1001F000807000EBC350A0F1807040EAD1704900DC
:1002000009E0490841EAC071A0EBC35000F50000C5
:10021000400800EBC350F0BC00F051BA614201222B
:1002200002EB4101001BF6E7F0BC704781F0004192
:10023000AAE780F00040A7E780EA010210B502F0CB
:100240000043400022D04A001FD0010E01EB126192
:10025000C0F35600C2F3560240F4000042F400021C
:10026000A0FB022000047F39140400D0401C50EA97
:10027000124001D44000491EC2B20C0604EBD0105B
:10028000401C4008802A02D003E0002010BD20F06E
:100290000100002900DA0020184310BD30B480EAC4
:1002A000010202F0004530F0004221F0004013D07E
:1002B00090B1C30DD40DC2F31601C0F31600E41AB9
:1002C00041F4000140F400027D34914201D3641CEA
:1002D00000E04900002C02DA30BC002070474FF4E7
:1002E00000000023914201D3891A034340084FEADA
:1002F0004101F7D151B1914202D14FF0004105E0E7
:1003000002D24FF0010101E06FF0010103EBC45094
:10031000284430BC00F0D3B92DE9FE4F804681EA75
:100320000300C00F0C46009021F0004123F000456F
:10033000B8EB0200A94105D24046214690461C4632
:100340000B46024623F00040104347D0270DC7F369
:100350000A00C3F30A510290401A019040286BDA58
:10036000C3F3130040F4801B0098924620B1002391
:10037000D2EB030A63EB0B0B01985946C0F1400224
:10038000504600F07BF906460D4650465946019A04
:1003900000F083F910EB08006141002487EA115254
:1003A00084EAE7731A4340D0009A62B3019A012AA3
:1003B0004FEA075215DC001B61EB02014FF00042CF
:1003C00002EA0752CDE90042001C41F58011324695
:1003D0002B4600F0BAF903B0BDE8F08F4046214645
:1003E000F9E7001B61EB0201001C41F580130018C6
:1003F0005B412018A2F5001747EB030140EAD570D6
:10040000B6196D4111E06D084FEA360645EAC07530
:100410004FEA0752001B61EB0201001C41F58011FD
:1004200049084FEA30000019514132462B4603B0CB
:10043000BDE8F04F00F07AB9009801224000002397
:10044000D0EB020263EBE073009821464FEAE074C0
:10045000B8EB000061EB0401E9E783F000435BE7E0
:1004600081F0004158E72DE9FE4F81EA030404F0D2
:10047000004421F0004100944FF0000B23F00043B2
:1004800050EA01045ED052EA03045BD0C3F30A547D
:10049000C1F30A552C44A4F2F3340194A0FB025496
:1004A000C1F3130141F48011C3F3130343F4801328
:1004B00001FB024400FB034E840A970A44EA81547C
:1004C00047EA8357A4FB076802958D0A05FB078559
:1004D0004FEA932C04FB0C542705029D4FEA065863
:1004E00047EA1637B5EB08056EEB070C870E920E40
:1004F00047EA811742EA8312A7FB0201B6EB0B0120
:1005000064EB00042B0D43EA0C335E1844EB1C50E3
:10051000DA465146E7FB0201C5F313044FEA0B33F9
:1005200043EA14534FEA0432019C43EA0603A4F160
:100530000C040294009CCDE900B400F006F903B06D
:10054000BDE8F08F00200146F9E7C10F80EAE070B6
:100550000844CA079623002100F0BAB80EB5C10FAF
:1005600080EAE0700844CA07002140F233438DE876
:100570000E000A460B4600F0E8F803B000BD00F09C
:10058000004220F00040C10DC0F3160040F400000E
:100590007F2901DA00207047962903DCC1F196011A
:1005A000C84001E096398840002AF4D040427047A4
:1005B00070B5C1F30A5201F000450024C1F31301E4
:1005C00040F2FF3341F480119A4201DA002070BDFD
:1005D00040F233439A42A2F2334203DC5242FFF725
:1005E000A1FD00E090402C43F1D0404270BD30B5F9
:1005F0000B46014600202022012409E021FA02F5E1
:100600009D4205D303FA02F5491B04FA02F528447A
:10061000151EA2F10102F1DC30BD2DE9F05F0546A7
:10062000002092469B4688460646814640241BE0B1
:100630002846414647462246FFF774FD53465A4630
:10064000C01A914110D311461846224600F016F800
:100650002D1A67EB01084F4622460120002100F0C9
:100660000DF817EB00094E41201EA4F10104DFDC58
:10067000484631462A464346BDE8F09F202A04DB1F
:10068000203A00FA02F1002070479140C2F12003A5
:1006900020FA03F3194390407047202A06DBCB175A
:1006A000203A41FA02F043EAE07306E041FA02F32D
:1006B000D040C2F1200291400843194670470029FA
:1006C000A8BF7047401C490008BF20F001007047D8
:1006D00010B4B0FA80FC00FA0CF050EA010404BF38
:1006E00010BC704749B1CCF1200421FA04F411FA8E
:1006F0000CF118BF012121430843A3EB0C01CB1DD2
:100700004FEA00614FEA102042BF002010BC704742
:1007100000EBC35010440029A4BF10BC7047401C1C
:10072000490008BF20F0010010BC704710B5141E2E
:1007300073F1000408DA401C41F1000192185B419A
:100740001A4301D120F0010010BD2DE9F04D924671
:100750009B4611B1B1FA81F202E0B0FA80F2203288
:100760009046FFF78BFF04460F4640EA0A0041EA35
:100770000B0153465A46084313D0114653EA010071
:1007800019D0C8F140025046FFF7CCFC05460E4692
:10079000504659464246FFF771FF084305D00120F5
:1007A00004E020463946BDE8F08D0020054346EAC6
:1007B000E0762C4337430A986305E40AA0EB08006F
:1007C0000022FD0A44EA47540A3002D500200146BF
:1007D000E9E7010510196941DDE90845001969419A
:1007E000BDE8F04DA2E72DE9F04D81EA030404F0E5
:1007F000004B21F0004514464FF0000A23F0004161
:1008000050EA050220D054EA01021DD0C5F30A5770
:100810000246C5F31303C1F31300C1F30A5640F4B3
:10082000801543F48013A7EB0608101BD64608F288
:10083000FD3873EB050002D308F1010801E09218BE
:100840005B41B8F1000F03DA00200146BDE8F08DEE
:1008500000204FF48011064684460EE0171B73EB10
:10086000050705D3121B63EB050306434CEA010C95
:1008700049084FEA300092185B4150EA0107EDD178
:1008800052EA030012D082EA040083EA0501084319
:1008900005D0101BAB4106D20122002306E0002246
:1008A0004FF0004302E06FF0010253101AEB060014
:1008B0004CEB085110EB0A0041EB0B01BDE8F04D89
:1008C000FFF734BFC1F30A52C1F3130140F2FF3303
:1008D00041F480119A4202DA00200146704740F24A
:1008E00033439A42A2F2334202DC5242FFF71ABC6F
:1008F000FFF7C4BE30B5041E71F1000404DB4FF0F5
:100900000044404264EB0101141E73F1000405DB56
:100910001C464FF00043524263EB0403994208BF68
:10092000904230BD064C074D06E0E06840F0010300
:1009300094E8070098471034AC42F6D3FFF7DAFB8F
:100940003C4B00085C4B000870B50446002520684D
:10095000806800F0010018B32068806820F0010072
:100960002168886000F010FE054613E000F00CFEE0
:10097000401B02280ED92068806800F0010048B1B1
:10098000A06A40F01000A062E06A40F00100E0625E
:10099000012070BD2068806800F001000028E5D1CA
:1009A0000020F6E72DE9FE4FA84A911E881E02F0AE
:1009B000DBFDA64A921D911E881E02F01BFE00BFA1
:1009C0005C21A3A0FFF7D0FB28B15C21A0A0FFF71A
:1009D000CBFB401C00E09EA004464C222146A1A077
:1009E00003F072FB9948001FB0F90A10B0F9080033
:1009F000964A121FB2F90620CDE9002002919348D1
:100A0000001FB0F90430B0F90220B0F900109B4883
:100A100003F05AFB9AA003F057FB00BF8B48001F5E
:100A2000008899490988401A00B28849091F08803E
:100A30000846408894494988401A00B28349091FF2
:100A400048800846808890498988401A00B27F49CA
:100A5000091F88800846C0888B49C988401A00B29F
:100A60007A49091FC8800846008987490989401AC0
:100A700000B27649091F08810846408982494989A0
:100A8000401A00B27149091F4881B1F90000FFF70F
:100A90005CFD044621467D4800F0BEF97B4988682C
:100AA000FFF76DFD00B26949091F0880B1F9020026
:100AB000FFF74BFD044621467448183000F0ACF9AE
:100AC0007249086AFFF75BFD00B26049091F488060
:100AD000B1F90400FFF739FD044621466B48303078
:100AE00000F09AF96949886BFFF749FD00B2574950
:100AF000091F8880B1F90600FFF730FD06464FF068
:100B00003332634BFFF7AFFC804689466149B1F948
:100B10000000FFF723FD06464FF033325E4BFFF730
:100B2000A2FC824642464B46FFF7F6FB0446FFF71F
:100B30003FFD00B24549091FC8800846C088554995
:100B400008804249091FB1F90800FFF707FD064672
:100B50004FF033324E4BFFF786FC04460D464D49AD
:100B6000B1F90200FFF7FAFC06464FF033324A4B68
:100B7000FFF779FC804622462B46FFF7CDFB8246E5
:100B8000FFF716FD00B23149091F088108460089A8
:100B9000404948802D49091FB1F90A00FFF7DEFCE2
:100BA00006464FF033323A4BFFF75DFC04460D46E4
:100BB0003849B1F90400FFF7D1FC06464FF0333253
:100BC000354BFFF750FC804622462B46FFF7A4FB2F
:100BD0008246FFF7EDFC00B21C49091F4881084618
:100BE00040892C49888000BF5C2119A0FFF7BCFA1E
:100BF00028B15C2116A0FFF7B7FA401C00E014A052
:100C000004466B22214617A003F05EFA0F48001F2E
:100C1000B0F90A000D49091FB1F908100B4A121F5B
:100C2000B2F90620CDE9002102900848001FB0F972
:100C30000430B0F90220B0F90010184803F044FA6B
:100C40000FA003F041FA00BFBDE8FE8FA402002010
:100C50002E2E5C4170705C4170705F466C696768F5
:100C6000742E63001B5B313B33366D0D0A5B4445CC
:100C70004255472025733A25645D2000B44A000898
:100C80001B5B306D0D0A0000AC0200202400002028
:100C90003333C33F180000203333EB3FF84A0008DA
:100CA000F0B58BB01E25002009900A90079008909F
:100CB0000526471F41E000BFFFF774FEBDF81C008A
:100CC0005249C988401A00B2ADF82400BDF81E0090
:100CD0004E490989401A00B2ADF82600BDF820003F
:100CE0004A494989401A00B2ADF828004748C088EF
:100CF000ADF81C0045480089ADF81E004348408906
:100D0000ADF82000BDF9240010F1050FD4DBBDF9CA
:100D1000260010F1050FCFDBBDF9280010F1050FFB
:100D2000CADBBDF924000528C6DCBDF9260005286C
:100D3000C2DCBDF928000528BEDC281EA5F1010192
:100D4000CDB2B8D1182101A8FFF703FA00242CE096
:100D5000FFF728FE642C26DB2C49B1F9001001981E
:100D6000084401902949B1F9021002980844029000
:100D70002648B0F90400A0F57C50FF3803990844D8
:100D800003902249B1F906100498084404901F49C1
:100D9000B1F908100598084405901C49B1F90A10EA
:100DA000069808440690601C84B2B4F5B27FCFDB8D
:100DB0000198C11700EB1161091209B2144A1180A0
:100DC0000298C11700EB1161091209B25180039812
:100DD000C11700EB1161091209B291800498C11783
:100DE00000EB1161091209B2D1800598C11700EB1F
:100DF0001161091209B211810698C11700EB116146
:100E0000091209B251810BB0F0BD0000A002002010
:100E1000AC02002000BFFEE72DE9F04104460D467C
:100E200021692068FFF7B0F9606061696068FFF7C9
:100E3000ABF9064631466068FFF730FAE0602846B5
:100E4000A168FFF7F3F90746E168FFF7F5F90646F1
:100E5000A168FFF799F9A0604FF07E50E168FFF7B5
:100E6000E5F906466168FFF7E7F92060BDE8F08123
:100E7000704772B600BFFEE738B502460023002077
:100E8000009000BF92F82400012801D1022038BD53
:100E9000012082F8240000BF4868072812D2106899
:100EA000406B0C79641E04EB84051F24AC40A04306
:100EB0000D796D1E05EB85050C68AC402043146868
:100EC000606327E048680D2812D21068006B0C7927
:100ED000E41F04EB84051F24AC40A0430D79ED1FF3
:100EE00005EB85050C68AC4020431468206311E0D5
:100EF0001068C06A0C790D3C04EB84051F24AC40DB
:100F0000A0430D790D3D05EB85050C68AC402043F1
:100F10001468E06208680A2812D31068C0680C7868
:100F20000A3C04EB44050724AC40A0430D780A3D7D
:100F300005EB45058C68AC4020431468E0600FE089
:100F4000106800690C7804EB44050724AC40A0430A
:100F50000D7805EB45058C68AC4020431468206192
:100F60000868102802D00868112827D1174C10688B
:100F7000A0421ED11068806800F40000F0B910682B
:100F8000806840F400001468A0600868102815D13B
:100F90000F4800680F4CB0FBF4F000EB80004000FD
:100FA000009002E00098401E009000980028F9D1BF
:100FB00004E0906A40F020009062012300BF00200E
:100FC00082F8240000BF184661E7000000240140B9
:100FD0000C00002040420F002DE9F041044600279C
:100FE00000250026A84614B90120BDE8F081A068BC
:100FF00010B1207D00B100BFA06A30B90020E062CE
:1010000084F82400204600F089F82046FFF79CFC75
:101010000746A06A00F01000002873D1002F71D19C
:10102000A06A20F4885040F00200A062E169606884
:101030000843217B40EA41000643A068B0F5807F69
:1010400002D0A068012802D14FF4807000E0002097
:101050000543207D012811D1207B38B9A069401EAD
:101060004FF4006141EA4030054307E0A06A40F0D8
:101070002000A062E06A40F00100E0622068406861
:1010800020F469402843216848602068806821492D
:101090000840304321688860A068B0F5807F02D0A6
:1010A000A068012802D14FF4807000E00020B0F564
:1010B000807F03D1208A401E4FEA00582068C06A12
:1010C00020F4700040EA08002168C8622068806847
:1010D00011490840B04208D10020E062A06A20F027
:1010E000020040F00100A06211E0A06A20F00200BE
:1010F00040F01000A062E06A40F00100E0620127C9
:1011000005E0FFE7A06A40F01000A0620127384622
:101110006BE70000FDF7E1FFFE0E1FFF10B586B084
:101120000446002002900390049005902249206814
:1011300088423ED100BF2148806940F400701F49B9
:1011400088610846806900F40070019000BF00BF0C
:1011500000BF0846806940F0080088610846806941
:1011600000F00800019000BF00BF022002900320A1
:10117000039002A9124800F071F812481249086061
:10118000002048600021104881608021C160490032
:1011900001618900416120218161C901C16100F0C3
:1011A00015F808B1FFF765FE00BF074820624462EA
:1011B00000BF06B010BD0000002401400010024036
:1011C000000C014008000240A0000020014600225F
:1011D00009B901207047164B0868C01A1423B0FBE8
:1011E000F3F08000086412480838C863022081F8D0
:1011F00021000868026843F6F0708243D1E90103D8
:101200001843CB6818430B6918434B6918438B6923
:101210001843CB69184302430868026000208863C2
:10122000012081F82100002081F8200000BFD1E7D3
:101230000800024070B5044600F0A6F906462546AF
:10124000681C10B104480078054400BF00F09CF908
:10125000801BA842FAD370BD080000202DE9F84792
:101260000346002294466EE14FF0010808FA02F4AA
:10127000D1F8008008EA0400A0427DD1DFF8DCA2AA
:10128000D1F80480A8EB0A09D0453AD014DCB8F1B3
:10129000030F50D009DCB8F1000F31D0B8F1010FC5
:1012A0001CD0B8F1020F49D120E0B8F1110F18D0CD
:1012B000B8F1120F42D11EE0B9F5881F25D006DC27
:1012C000B9F5803F20D0B9F5801F37D11AE0B9F5C4
:1012D000001F18D0B9F5041F30D117E0D1F80CC0A9
:1012E0002DE0D1F80C8008F1040C28E0D1F80C8036
:1012F00008F1080C23E0D1F80C8008F10C0C1EE07A
:1013000000BF00BF00BF00BF00BF00BFD1F8088012
:10131000B8F1000F02D14FF0040C0BE0D1F80880B7
:10132000B8F1010F03D14FF0080C1C6102E04FF03F
:10133000080C5C6103E04FF0000C00E000BF00BF50
:10134000FF2801D8984601E003F104084646FF282B
:1013500002D84FEA820803E0A2F108084FEA8808A1
:101360004746D6F800804FF00F0909FA07F928EA36
:1013700009080CFA07F900E088E048EA0908C6F80D
:101380000080D1F8048008F08058B8F1805F7DD1EA
:1013900000BFDFF8CC81D8F8188048F00108DFF8EA
:1013A000C091C9F81880C846D8F8188008F001081C
:1013B000CDF8008000BF00BF4FEAB9384FEA92096C
:1013C00058F829504FEA82784FEA18794FF00F0801
:1013D00008FA09F825EA0805DFF88881434502D1B3
:1013E0004FF0000816E0DFF88081434502D14FF04E
:1013F00001080FE0DFF87481434502D14FF0020885
:1014000008E0DFF86C81434502D14FF0030801E0AA
:101410004FF004084FEA82794FEA197908FA09F87F
:1014200048EA0505DFF84C814FEA920948F829504F
:10143000D1F8048008F48018B8F5801F0AD1DFF8CD
:101440003881D8F8008048EA0008DFF82C91C9F804
:10145000008009E0DFF82081D8F8008028EA000841
:10146000DFF81491C9F80080D1F8048008F400185E
:10147000B8F5001F10D1DFF8008108F10408D8F892
:10148000008048EA0008DFF8F09000E05AE009F137
:101490000409C9F800800DE0DFF8DC8008F10408D9
:1014A000D8F8008028EA0008DFF8CC9009F1040998
:1014B000C9F80080D1F8048008F40038B8F5003F7E
:1014C0000ED1DFF8B480A8F10408D8F8008048EA0B
:1014D0000008DFF8A490A9F10409C9F800800DE024
:1014E000DFF89480A8F10408D8F8008028EA000802
:1014F000DFF88490A9F10409C9F80080D1F80480CC
:1015000008F48038B8F5803F0ED1DFF86C80A8F180
:101510000808D8F8008048EA0008DFF85C90A9F1D4
:101520000809C9F800800DE0DFF84C80A8F1080830
:10153000D8F8008028EA0008DFF83C90A9F10809F3
:10154000C9F80080521CD1F8008028FA02F8B8F1DE
:10155000000F7FF489AEBDE8F8870000000011108D
:101560000010024000080140000C01400010014042
:101570000014014008000140080401400AB1016163
:1015800001E00B04036170470148006870470000E8
:101590000000002070B504460CB9012070BD94F81D
:1015A0003D0028B9002084F83C00204600F046FBAE
:1015B000242084F83D002068006820F001002168A4
:1015C00008602068006840F40040216808602068D6
:1015D000006820F400402168086000F08FFD054697
:1015E0005C496068884206D85B48854201D2012088
:1015F00007E0002005E05948854201D2012000E0C3
:101600000020012800D1C9E75548B5FBF0F6206855
:10161000406820F03F003043216848604D496068D1
:10162000884201D8701C07E04FF4967070434FF465
:101630007A71B0FBF1F0401C2168096A21F03F018A
:1016400008432168086243496068884214D8681ECC
:1016500061684900B0FBF1F0401CC0F30B000428A6
:1016600001D204203DE0681E61684900B0FBF1F042
:10167000401CC0F30B0034E0A06838B9681E6168F4
:1016800001EB4101B0FBF1F0401C0AE0681E61680B
:1016900001EBC10202EB0111B0FBF1F0401C40F480
:1016A0008040C0F30B0008B901201AE0A06848B9D7
:1016B000681E616801EB4101B0FBF1F0401CC0F312
:1016C0000B000CE0681E616801EBC10202EB011126
:1016D000B0FBF1F0401CC0F30B0040F4804040F43C
:1016E00000402168C9694CF6FF72914308432168A4
:1016F000C861D4E9070108432168096821F0C001E5
:10170000084321680860D4E9031008432168896808
:1017100048F2FF329143084321688860D4E905010B
:1017200008432168C96821F0FF0108432168C860A7
:101730002068006840F001002168086000202064F3
:10174000202084F83D000020206384F83E0000BF84
:1017500024E70000A086010080841E0000093D00EF
:1017600040420F002DE9FE4F04460F469046994631
:10177000DDE90CAB0E9E00200290FFF705FF054649
:1017800094F83D00202872D119230122CE49204629
:10179000009501F0E4FC10B10220BDE8FE8F00BF0F
:1017A00094F83C00012801D10220F6E7012084F8DA
:1017B0003C0000BF2068006800F0010028B92068E4
:1017C000006840F00100216808602068006820F48B
:1017D000006021680860222084F83D00402084F8E1
:1017E0003E0000202064C4F824A0A4F82AB0608D34
:1017F0002085B648E0624B46424639462046CDE950
:10180000006501F059FB08B10120C6E7208D88B9B9
:1018100000BF002001902068406901902068806925
:10182000019000BF00BF2068006840F4007021688C
:1018300008604BE0208D01281AD12068006820F450
:1018400080602168086072B600BF002001902068A7
:101850004069019020688069019000BF00BF206846
:10186000006840F400702168086062B62EE029E14B
:10187000208D022819D12068006840F4006021689A
:10188000086072B600BF0020019020684069019096
:1018900020688069019000BF00BF2068006820F4C4
:1018A00080602168086062B610E02068006840F43B
:1018B00080602168086000BF0020019020684069B6
:1018C000019020688069019000BF00BFEBE0208D8F
:1018D00003287DD8208D012815D12A46314620467F
:1018E00001F019FD08B1012057E720680069616A1D
:1018F0000870606A401C6062208D401E2085608DEB
:10190000401E6085CFE0208D02282CD13346002276
:101910006F492046009501F022FC08B101203CE708
:1019200072B62068006840F4007021680860206882
:101930000069616A0870606A401C6062208D401E08
:101940002085608D401E608562B620680069616AEE
:101950000870606A401C6062208D401E2085608D8A
:10196000401E60859FE0334600225949204600957D
:1019700001F0F5FB08B101200FE72068006820F4B2
:1019800080602168086072B620680069616A08702A
:10199000606A401C6062208D401E2085608D401E64
:1019A00060854C4800681921B0FBF1F04FF47A7162
:1019B000B0FBF1F0C0EBC00000EB8000029000BF74
:1019C0000298401E02900298A8B90020206300E00F
:1019D00039E0202084F83D00002084F83E00206C8F
:1019E00040F02000206462B600BF002084F83C0074
:1019F00000BF0120D1E620684069C0F380000028C4
:101A0000DED02068006840F400702168086020681B
:101A10000069616A0870606A401C6062208D401E27
:101A20002085608D401E608562B620680069616A0D
:101A30000870606A401C6062208D401E2085608DA9
:101A4000401E60852FE02A463146204601F063FCA7
:101A500008B10120A1E620680069616A0870606A27
:101A6000401C6062208D401E2085608D401E608578
:101A700020684069C0F38000A8B1208D032805D1FB
:101A80002068006820F48060216808602068006990
:101A9000616A0870606A401C6062208D401E20856B
:101AA000608D401E6085208D00287FF410AF2020BF
:101AB00084F83D00002084F83E0000BF84F83C001C
:101AC00000BF6AE6022068E6020010000000FFFF87
:101AD000040001000C0000202DE9FC5F04460F46C5
:101AE00090469946DDE90CAB0E9EFFF74DFD05468D
:101AF00094F83D0020287DD1192301224D4920462C
:101B0000009501F02CFB10B10220BDE8FC9F00BF46
:101B100094F83C00012801D10220F6E7012084F866
:101B20003C0000BF2068006800F0010028B9206870
:101B3000006840F00100216808602068006820F417
:101B4000006021680860212084F83D00402084F86E
:101B50003E0000202064C4F824A0A4F82AB0608DC0
:101B600020853548E0624B46424639462046CDE95D
:101B7000006501F051FA08B10120C6E731E02A46BC
:101B80003146204601F00CFC50B1206C042805D1F0
:101B90002068006840F40070216808600120B4E704
:101BA000606A007821680861606A401C6062208D6C
:101BB000401E2085608D401E608520684069C0F30E
:101BC000800070B1208D60B1606A00782168086182
:101BD000606A401C6062208D401E2085608D401E22
:101BE0006085208D0028CAD12A463146204601F062
:101BF00083FA00E01CE050B1206C042805D1206875
:101C0000006840F400702168086001207DE72068CA
:101C1000006840F4007021680860202084F83D00CE
:101C2000002084F83E0000BF84F83C0000BF6CE751
:101C300002206AE7020010000000FFFF10B586B026
:101C400004460020029003900490059015492068F6
:101C5000884225D100BF1448806940F0080012492D
:101C600088610846806900F00800019000BF00BF4D
:101C7000C0200290122003900320059002A90B4877
:101C8000FFF7ECFA00BF0848C06940F400100649AD
:101C9000C8610846C06900F40010019000BF00BF91
:101CA00006B010BD0054004000100240000C01407E
:101CB00003480068034909780844014908607047EF
:101CC000000000200800002010B50848006840F01F
:101CD000100006490860032000F098F80F2000F07B
:101CE00007F800F02BF8002010BD00000020024093
:101CF00070B504460E4800784FF47A71B1FBF0F0ED
:101D00000C490968B1FBF0F5284600F081FC08B1E8
:101D1000012070BD102C07D200222146501E00F079
:101D200037F80548046001E00120F2E70020F0E701
:101D3000080000200C0000200400002008B500BFAF
:101D40001148806940F001000F49886108468069A8
:101D500000F00100009000BF00BF00BF0846C0694E
:101D600040F08050C8610846C06900F08050009083
:101D700000BF00BF00BF0549486820F0E06040F0A8
:101D80000070486000BF08BD001002400000014024
:101D90002DE9F05F80460D461646002702F0A4F9B3
:101DA000074639462A46334601F00700C0F1070AC4
:101DB000BAF1040F02D94FF0040A01E0C0F1070A9A
:101DC000D14600F1040ABAF1070F02D24FF0000A1F
:101DD00001E0A0F1030AD4464FF0010A0AFA09FA19
:101DE000AAF1010A0AEA020A0AFA0CFA4FF0010BF8
:101DF0000BFA0CFBABF1010B0BEA030B4AEA0B04E9
:101E00002146404602F078F9BDE8F09F00BF00F09F
:101E10000702064B19684FF6FF031940044B0B43AA
:101E200043EA0221014B196000BF70470CED00E04E
:101E30000000FA05F8B5044600260025207800F0D9
:101E4000010000286BD000274348C06900F0805093
:101E500070B900BF4048C06940F080503E49C86139
:101E60000846C06900F08050009000BF00BF012705
:101E70003A48006800F48070B0B93848006840F40F
:101E8000807036490860FFF77FFB064606E0FFF7E3
:101E90007BFB801B642801D90320F8BD2F48006814
:101EA00000F480700028F2D02B48006A00F44075DE
:101EB0002DB3A08800F44070A84220D02648006AC4
:101EC00020F440750120264908600020086022485F
:101ED000056205F0010090B1FFF756FB064608E0E9
:101EE000FFF752FB801B41F28831884201D9032061
:101EF000D3E71948006A00F002000028F0D0164825
:101F0000006A20F440706168084313490862012F99
:101F100004D10846C06920F08050C86100BF207815
:101F200000F00200022807D10B48406820F440402E
:101F3000A168084308494860207800F01000102884
:101F400007D10548406820F48000E1680843024951
:101F500048600020A1E7000000100240007000402F
:101F60004004424270B504460D460CB9012070BDD4
:101F70005A48006800F00700A8420ED2574800688F
:101F800020F007002843554908600846006800F023
:101F90000700A84201D00120E9E7207800F0020004
:101FA00002281DD1207800F00400042805D14C48F7
:101FB000406840F4E0604A494860207800F008003A
:101FC000082805D14648406840F4605044494860BC
:101FD0004348406820F0F000A16808434049486049
:101FE000207800F0010078B36068012806D13C48F1
:101FF000006800F4003090B90120B8E7606802285A
:1020000006D13748006800F0007040B90120AEE703
:102010003348006800F0020008B90120A7E7304803
:10202000406820F00300616808432D494860FFF7CD
:10203000ABFA064609E0FFF7A7FA801B41F28831A8
:10204000884202D9032092E707E02548406800F063
:102050000C006168B0EB810FEDD12048006800F002
:102060000700A8420ED91D48006820F00700284349
:102070001A4908600846006800F00700A84201D02D
:10208000012074E7207800F00400042807D11448E8
:10209000406820F4E060E168084311494860207816
:1020A00000F00800082808D10D48406820F460506E
:1020B000216940EAC1000A49486000F03FF8084938
:1020C0004968C1F30311074A515CC84006490860DA
:1020D00006480068FFF70CFE002048E70020024099
:1020E000001002409A4A00080C0000200400002062
:1020F00001480068704700000C00002000B5FFF7A1
:10210000F7FF04494968C1F30221034A515CC84002
:1021100000BD000000100240AA4A000800B5FFF709
:10212000E7FF04494968C1F3C221034A515CC84032
:1021300000BD000000100240AA4A000870B500214E
:102140000022002400230020134D696801F00C05D3
:10215000F5B1042D02D0082D19D101E00F4819E086
:102160000F4DC1F38346AB5D01F4803555B10A4D87
:102170006D68C5F340450B4E725D084D5D43B5FB80
:10218000F2F402E0084D03FB05F4204602E000BF34
:10219000024800BF00BF70BD0010024000127A006C
:1021A000884A0008984A000800093D00F8B504462E
:1021B0000CB90120F8BD207800F00100002878D08B
:1021C000F848406800F00C0004280CD0F54840683E
:1021D00000F00C00082811D1F248406800F480306B
:1021E000B0F5803F0AD1EF48006800F400300028C5
:1021F0005FD0606800285CD10120DBE700BF606829
:10220000B0F5803F06D1E748006840F48030E549EA
:10221000086028E0606858B9E248006820F480301F
:10222000E04908600846006820F4802008601AE051
:102230006068B0F5A02F0BD1DA48006840F4802028
:10224000D84908600846006840F4803008600AE019
:10225000D448006820F48030D249086008460068FD
:1022600020F48020086000BF606888B1FFF78CF917
:10227000054606E0FFF788F9401B642801D90320D2
:1022800098E7C848006800F400300028F2D010E059
:10229000FFF77AF9054606E0FFF776F9401B642858
:1022A00001D9032086E7BF48006800F40030002809
:1022B000F2D1207800F00200022857D1B9484068D6
:1022C00000F00C0050B1B748406800F00C0008283E
:1022D00018D1B448406800F4803098B9B14800681B
:1022E00000F0020020B12069012801D0012061E73F
:1022F000AC48006820F0F800616940EAC100A949D3
:10230000086033E02069E8B10120A7490860FFF7C1
:102310003BF9054606E0FFF737F9401B022801D9D3
:10232000032047E79F48006800F002000028F2D031
:102330009C48006820F0F800616940EAC1009949B2
:10234000086013E0002098490860FFF71DF9054672
:1023500006E0FFF719F9401B022801D9032029E7FD
:102360009048006800F002000028F2D1207800F0C8
:10237000080008282DD1A069B8B101208B49086058
:10238000FFF702F9054606E0FFF7FEF8401B0228BA
:1023900001D903200EE78348406A00F002000028BC
:1023A000F2D0012001F0ECFB13E000207F4908602F
:1023B000FFF7EAF8054606E0FFF7E6F8401B0228BB
:1023C00001D90320F6E67748406A00F002000028B1
:1023D000F2D1207800F00400042873D1002771485E
:1023E000C06900F0805070B900BF6E48C06940F00D
:1023F00080506C49C8610846C06900F08050009068
:1024000000BF00BF01276A48006800F48070B0B9BF
:102410006748006840F4807065490860FFF7B4F8C9
:10242000054606E0FFF7B0F8401B642801D90320F9
:10243000C0E65F48006800F480700028F2D000BF5A
:10244000E068012806D15748006A40F0010055496C
:10245000086227E0E06858B95248006A20F001009D
:10246000504908620846006A20F00400086219E03A
:10247000E06805280BD14B48006A40F00400494948
:1024800008620846006A40F0010008620AE0454818
:10249000006A20F00100434908620846006A20F003
:1024A0000400086200BFE068A0B1FFF76DF80546C0
:1024B00009E0FFF769F8401B41F28831884202D9F0
:1024C000032077E622E03748006A00F00200002887
:1024D000EFD012E0FFF758F8054608E0FFF754F890
:1024E000401B41F28831884201D9032062E62D4821
:1024F000006A00F002000028F0D1012F05D1294820
:10250000C06920F080502749C86100BFE069C8B3A6
:102510002448406800F00C00082860D0E0690228D8
:1025200048D1002020490866FFF72EF8054606E04E
:10253000FFF72AF8401B022801D903203AE6194880
:10254000006800F000700028F2D1206AB0F5803FEA
:1025500007D11448406820F40030A16808431149AD
:102560004860D4E9080108430E49496821F4741110
:1025700008430C49486001200B490866FFF704F83E
:10258000054607E03DE0FEF7FFFF401B022801D9AA
:1025900003200FE60348006800F000700028F2D026
:1025A0002FE000000010024000004242800442423E
:1025B00000700040002014490866FEF7E5FF05465C
:1025C00006E0FEF7E1FF401B022801D90320F1E5F8
:1025D0000E48006800F000700028F2D111E0E069B8
:1025E000012800D1E6E50948466806F48031206AF2
:1025F000814204D106F47011606A814201D0012049
:10260000D8E50020D6E5000000004242001002405C
:1026100070B504462546681EB0F1807F01D30120C5
:102620000FE0681E4FF0E02148610F214FF0FF30AE
:1026300001F062FD00204FF0E02188610720086171
:10264000002070BD10B50346002200BF93F83C0087
:10265000012801D1022010BD012083F83C0000BFF9
:1026600022F0FF00CC6840EA040222F440708C683B
:1026700040EA040222F480604C6840EA040222F43A
:1026800000600C6840EA040222F480500C6940EAC1
:10269000040222F400504C6940EA040222F4804013
:1026A000CC6940EA04021868426400BF002083F845
:1026B0003C0000BF00BFCEE730B502460B4600BF6E
:1026C00092F83C00012801D1022030BD012082F89F
:1026D0003C0000BF022082F83D001068446810688A
:1026E000816824F070041868044310684460104D39
:1026F0001068A8420BD01068B0F1804F07D00D4D84
:102700001068A84203D00C4D1068A84205D121F0F2
:1027100080015868014310688160012082F83D0003
:1027200000BF002082F83C0000BF00BFCDE70000E2
:10273000002C0140000400400008004010B5044691
:102740000CB9012010BD94F83D0028B9002084F890
:102750003C00204600F026F8022084F83D00211DB0
:10276000206801F069FA012084F8460000BF84F86F
:102770003E0001213F2001554020015541200155D7
:1027800000BF00BF012084F84200432001554420CF
:1027900001554520015500BF012084F83D0000206F
:1027A000D0E7000008B5094A016891420DD100BF89
:1027B0000749896941F40061054A916111468969B7
:1027C00001F40061009100BF00BF08BD002C014072
:1027D000001002402DE9F04104460D46002700BFDD
:1027E00094F83C00012802D10220BDE8F0810120CC
:1027F00084F83C0000BF022084F83D002068866811
:1028000026F0770626F47F462068866028685028E0
:1028100033D00CDC202850D004DC00284BD010280A
:1028200051D149E0302849D040284CD139E06028C6
:102830002DD0702807D0B0F5805F03D0B0F5005FD1
:1028400041D10DE041E0D5E902136A68206801F04A
:1028500046FA2068866846F077062068866034E08D
:10286000D5E902136A68206801F039FA20688068A7
:1028700040F480402168886027E0EA686968206841
:1028800001F0FEFA5021206801F034FA1DE0EA68F8
:102890006968206801F007FB6021206801F02AFACE
:1028A00013E0EA686968206801F0EAFA40212068CC
:1028B00001F020FA09E000BF00BF00BF29682068CE
:1028C00001F018FA01E0012700BF00BF012084F8E1
:1028D0003D0000BF002084F83C0000BF384684E77C
:1028E00010B586B004460020029003900490059035
:1028F0003C492068884217D100BF3B48806940F0BE
:102900000400394988610846806900F0040001909C
:1029100000BF00BF0815029002200390059002A995
:102920003248FEF79BFC5BE02068B0F1804F16D187
:1029300000BF2D48806940F004002B49886108469B
:10294000806900F00400019000BF00BF02200290E7
:102950000390059002A92548FEF780FC40E0244939
:102960002068884221D100BF1F48806940F00800DC
:102970001D4988610846806900F00800019000BF89
:1029800000BF1020029002200390059002A9194870
:10299000FEF764FC00BF1849486820F4406040F02E
:1029A000E06040F4006048601AE014492068884202
:1029B00016D100BF0C48806940F008000A498861C0
:1029C0000846806900F00800019000BF00BF48156C
:1029D000029002200390059002A90648FEF73EFCF3
:1029E00006B010BD002C014000100240000801405C
:1029F00000040040000C01400000014000080040BD
:102A00002DE9F04104460D461646002700BF94F814
:102A10003C00012802D10220BDE8F081012084F8A9
:102A20003C0000BF36B1042E1BD0082E31D00C2E36
:102A30005ED145E02946206801F066F9206880698A
:102A400040F00800216888612068806920F0040057
:102A50002168886120688069296908432168886144
:102A600048E02946206801F07FF92068806940F439
:102A70000060216888612068806920F48060216896
:102A8000886120688069296940EA0120216888619D
:102A900030E02946206801F09BF92068C06940F0C9
:102AA00008002168C8612068C06920F0040021681E
:102AB000C8612068C069296908432168C86119E0B4
:102AC0002946206801F0B8F92068C06940F4006028
:102AD0002168C8612068C06920F480602168C861ED
:102AE0002068C069296940EA01202168C86101E0C5
:102AF000012700BF00BF00BF002084F83C0000BFDA
:102B0000384689E710B504460CB9012010BD94F889
:102B10003D0028B9002084F83C00204600F026F84B
:102B2000022084F83D00211D206801F085F8012075
:102B300084F8460000BF84F83E0001213F20015583
:102B4000402001554120015500BF00BF012084F8FD
:102B5000420043200155442001554520015500BF46
:102B6000012084F83D000020D0E7000008B501688E
:102B7000B1F1804F0DD100BF1849C96941F0010181
:102B8000164AD1611146C96901F00101009100BFE7
:102B900023E0134A016891420DD100BF0F49C96972
:102BA00041F002010D4AD1611146C96901F00201EB
:102BB000009100BF11E00B4A016891420DD100BFA6
:102BC0000649C96941F00401044AD1611146C96945
:102BD00001F00401009100BF00BF08BD00100240D9
:102BE000000400400008004070B504460D4615B9C9
:102BF00094F83E000BE0042D02D13F20005D06E07A
:102C0000082D02D14020005D01E04120005D012837
:102C100001D0012070BD1DB9022084F83E000EE0F5
:102C2000042D03D102213F20015508E0082D03D1D6
:102C300002214020015502E00221412001550122DC
:102C40002946206801F03AF819492068884201D1E4
:102C5000012000E0002028B12068406C40F40040D2
:102C6000216848641249206888420BD02068B0F17E
:102C7000804F07D00F492068884203D00E49206852
:102C800088420CD12068806800F00706062E0CD020
:102C90002068006840F001002168086005E02068B5
:102CA000006840F00100216808600020B2E70000E1
:102CB000002C0140000400400008004010B504460C
:102CC0000CB9012010BDA06900B100E000BF94F86C
:102CD000410028B9002084F84000204600F02AF87E
:102CE000242084F841002068C06820F40050216846
:102CF000C860204601F022F92068006920F4904065
:102D0000216808612068406920F02A002168486134
:102D10002068C06840F400502168C86000206064EA
:102D2000202084F8410084F842000020606300BF46
:102D3000C8E7000010B586B004460020029003905A
:102D4000049005901949206888422DD100BF184889
:102D5000C06940F400301649C8610846C06900F4F3
:102D60000030019000BF00BF00BF0846806940F0FE
:102D7000040088610846806900F00400019000BFEB
:102D800000BF04200290022003900320059002A9B6
:102D90000848FEF763FA0820029000200390049090
:102DA00002A90448FEF75AFA06B010BD00440040DC
:102DB00000100240000801402DE9F84F04460E467D
:102DC000174699464FF0000A94F84100202850D148
:102DD00006B117B90120BDE8F88F002060642120FA
:102DE00084F84100FEF7D0FB8246A784E784A06800
:102DF000B0F5805F04D1206910B90025B04602E02B
:102E000035464FF000081EE0534600228021204640
:102E1000CDF8009001F010F920B1202084F8410095
:102E20000320D8E745B9B8F80000C0F308002168CE
:102E3000486008F1020803E02878216848606D1CAA
:102E4000E08C401EE084E08C0028DDD15346002257
:102E500040212046CDF8009001F0EEF820B120206E
:102E600084F841000320B6E7202084F841000020C8
:102E7000B1E70220AFE700BFFEE7014608684069FE
:102E8000C0F38020B0B16FF480600A685061002008
:102E90000863202081F83D00002081F83E00086C86
:102EA00040F00400086400BF002081F83C0000BF2F
:102EB000012070470020FCE72DE9F84304460F4647
:102EC00015469946DDE908862068006840F4806070
:102ED000216808602068006840F4807021680860FC
:102EE000434600224FF001112046009600F037F9CA
:102EF00060B12068006800F48070B0F5807F02D176
:102F00004FF4007020640320BDE8F88307F0FE0052
:102F100021680861334642463E49204600F07EF96A
:102F200008B10120F0E700BF002000902068406950
:102F3000009020688069009000BF00BF3246414683
:102F4000204600F02DFA50B1206C042805D12068ED
:102F5000006840F40070216808600120D4E7B9F1EE
:102F6000010F03D1E8B22168086117E0C5F307201B
:102F70002168086132464146204600F011FA50B1FE
:102F8000206C042805D12068006840F40070216896
:102F900008600120B8E7E8B221680861324641467E
:102FA000204600F0FDF950B1206C042805D12068BE
:102FB000006840F40070216808600120A4E72068E0
:102FC000006840F4807021680860434600224FF09A
:102FD00001112046009600F0C2F858B12068006840
:102FE00000F48070B0F5807F02D14FF4007020644F
:102FF000032089E7F8B240F00100216808613346F8
:1030000042460449204600F009F908B101207BE757
:10301000002079E7020001002DE9F84304468846C4
:1030200015469946DDE908672068006840F480701D
:1030300021680860334600224FF0011120460097B6
:1030400000F08DF860B12068006800F48070B0F581
:10305000807F02D14FF4007020640320BDE8F88324
:1030600008F0FE00216808613B46324621492046AF
:1030700000F0D4F808B10120F0E700BF0020009074
:1030800020684069009020688069009000BF00BF00
:103090003A463146204600F083F950B1206C0428AE
:1030A00005D12068006840F40070216808600120A4
:1030B000D4E7B9F1010F03D1E8B22168086117E044
:1030C000C5F30720216808613A463146204600F0E2
:1030D00067F950B1206C042805D12068006840F4DD
:1030E0000070216808600120B8E7E8B22168086133
:1030F0000020B3E70200010070B504460D461646F5
:1031000025E02046FFF7B9FE08B1012070BD681C1C
:10311000E8B1FEF739FA801BA84200D8BDB9206893
:103120004069C0F3800090B900202063202084F81B
:103130003D00002084F83E00206C40F02000206418
:1031400000BF002084F83C0000BF0120DEE72068BB
:103150004069C0F380000028D3D00020D6E72DE9D5
:10316000F04104460D4617461E46DDF8188038E04B
:10317000701CA8B3FEF708FAA0EB0800B04200D814
:1031800076BBC5F3074001280AD120684069A9B27F
:103190000840A9B2884201D101200BE0002009E0DB
:1031A00020688069A9B20840A9B2884201D10120F3
:1031B00000E00020B84214D100202063202084F8D1
:1031C0003D00002084F83E00206C40F02000206488
:1031D00000BF002084F83C0000BF0120BDE8F08162
:1031E000FFE7C5F3074001280AD120684069A9B26A
:1031F0000840A9B2884201D101200BE0002009E07B
:1032000020688069A9B20840A9B2884201D1012092
:1032100000E00020B842ABD00020DFE72DE9F0410C
:1032200004460D4616461F4658E020684069C0F324
:103230008020E8B12068006840F4007021680860D0
:103240006FF480602168486100202063202084F8AA
:103250003D00002084F83E00206C40F00400206413
:1032600000BF002084F83C0000BF0120BDE8F081D1
:10327000701C90B3FEF788F9C01BB04200D866BB43
:10328000C5F3074001280AD120684069A9B2084067
:10329000A9B2884201D101200BE0002009E020689A
:1032A0008069A9B20840A9B2884201D1012000E09A
:1032B000002090B900202063202084F83D000020E9
:1032C00084F83E00206C40F02000206400BF002005
:1032D00084F83C0000BF0120C8E7FFE7C5F30740C2
:1032E00001280AD120684069A9B20840A9B28842E1
:1032F00001D101200BE0002009E020688069A9B21B
:103300000840A9B2884201D1012000E00020002835
:103310008BD00020AAE770B504460D46164637E06C
:1033200020684069C0F30010A0B16FF01000216860
:10333000486100202063202084F83D00002084F8AC
:103340003E00206C206400BF002084F83C0000BFD9
:10335000012070BDFEF718F9801BA84200D8BDB946
:1033600020684069C0F3801090B9002020632020BD
:1033700084F83D00002084F83E00206C40F02000DE
:10338000206400BF002084F83C0000BF0120E0E77B
:1033900020684069C0F380100028C1D00020D8E721
:1033A00070B504460D46164625E02046FFF765FD3C
:1033B00008B1012070BD681CE8B1FEF7E5F8801B7C
:1033C000A84200D8BDB920684069C0F3C01090B9C8
:1033D00000202063202084F83D00002084F83E0077
:1033E000206C40F02000206400BF002084F83C00E6
:1033F00000BF0120DEE720684069C0F3C01000284C
:10340000D3D00020D6E7000038B580216B2000F033
:1034100013F96420FDF70EFF00216B2000F00CF97A
:103420004FF4FA7000F08AF918211B2000F004F91B
:1034300000211C2000F000F90021232000F0FCF8FE
:103440000021382000F0F8F800216A2000F0F4F89C
:103450006946752000F0AAF89DF8000068281CD085
:1034600000BF5C211DA0FCF77FFE28B15C211BA0E2
:10347000FCF77AFE401C00E018A0044620222146FA
:103480001CA000F021FE9DF8001020A000F01CFE02
:1034900027A000F019FE00BF38BD09216B2000F005
:1034A000CBF800BF5C210DA0FCF75EFE28B15C21CB
:1034B0000AA0FCF759FE401C00E008A004462622A2
:1034C00021461DA000F000FE21A000F0FDFD18A087
:1034D00000F0FAFD00BF00BFDEE700002E2E5C49C1
:1034E0006E745C496E745F4D5055363035302E63C6
:1034F000000000001B5B303B33316D0D0A5B455211
:10350000524F522025733A25645D2000756E6D611F
:103510007463686564204D505536303530206465DD
:10352000766963652049443A203078253032580066
:103530001B5B306D0D0A00001B5B313B33366D0D9C
:103540000A5B44454255472025733A25645D2000B7
:10355000496E745F4D5055363035305F496E697431
:1035600020646F6E650000007CB506460C4615466B
:10357000062269463B2000F02BF89DF801009DF8DB
:10358000001040EA012000B230809DF803009DF851
:10359000021040EA012000B220809DF805009DF84D
:1035A000041040EA012000B228807CBD3EB50446EC
:1035B0000D464FF0FF3001210B462246CDE9005168
:1035C0000290D0210148FEF7CDF83EBDE400002076
:1035D000FEB504460D4616464FF0FF300123224645
:1035E000D021CDE9005602900148FEF7BBF8FEBDA0
:1035F000E40000207CB506460C46154606226946C6
:103600004320FFF7E5FF9DF801009DF8001040EA18
:10361000012000B230809DF803009DF8021040EABE
:10362000012000B220809DF805009DF8041040EABA
:10363000012000B228807CBD33B583B004464FF032
:10364000FF30012104AA0B46CDE900210290224659
:10365000D0211148FEF740FA00BF5C210FA0FCF713
:1036600083FD28B15C210DA0FCF77EFD401C00E02D
:103670000AA005464E2229460EA000F025FD9DF821
:103680001020214611A000F01FFD1BA000F01CFD22
:1036900000BF05B030BD0000E40000202E2E5C49C4
:1036A0006E745C496E745F4D5055363035302E6304
:1036B000000000001B5B313B33366D0D0A5B444557
:1036C0004255472025733A25645D2000496E745F9A
:1036D0004D5055363035305F53656E6442797465B0
:1036E00020726567203D202523782C20627974653F
:1036F000203D2025237800001B5B306D0D0A000063
:1037000070B50546BC2D01DB012412E0622D01DB02
:1037100002240EE02A2D01DB03240AE0142D01DB34
:10372000042406E00A2D01DB052402E0052D00DB60
:10373000062421461A20FFF77FFF70BD70B50446AE
:10374000042C01DA042404E0B4F57A7F01DD4FF49F
:103750007A744FF47A7090FBF4F0401EC5B229469B
:103760001920FFF769FF264604EBD671C1F34F001D
:10377000FFF7C6FF70BD00000EB50020009001905D
:10378000029013481349086000211248816001210A
:103790000173002101754FF46021C16100200D49C2
:1037A000486001210B480161FDF716FC08B1FDF7E7
:1037B00060FB0920009001200190002002906946E2
:1037C0000448FDF759FB08B1FDF753FB0EBD00009F
:1037D000002401407000002008B500BF0648406981
:1037E00040F00100044948610846406900F00100CA
:1037F000009000BF00BF08BD0010024000B585B0BA
:103800000020019002900390049000BF2748806937
:1038100040F02000254988610846806900F02000BA
:10382000009000BF00BF00BF0846806940F0040060
:1038300088610846806900F00400009000BF00BF66
:1038400000BF0846806940F008008861084680692A
:1038500000F00800009000BF00BF01224FF440417B
:103860001348FDF78BFE01224FF4C0511148FDF7BC
:1038700085FE4FF44040019001200290002003900B
:103880000320049001A90A48FDF7E8FC4FF4C0505A
:10389000019001200290002003900320049001A9D0
:1038A0000448FDF7DBFC05B000BD0000001002403D
:1038B000000C01400008014010B50B480B4908609E
:1038C0000B484860002109488160C1604FF4804185
:1038D0000161002141618161C1610162FDF75AFE10
:1038E00008B1FDF7C6FA10BD00540040E400002006
:1038F000801A060000B595B0002011901290139028
:1039000014900F9010901C2108A8FCF722FC202195
:103910006846FCF71EFC2B482B49086003204860D2
:1039200000212948816040F2E731C1600021016136
:1039300041618161FEF702FF08B1FDF79AFA4FF489
:103940008050119011A92048FEF744FF08B1FDF7FF
:1039500090FA1D48FFF7D6F808B1FDF78AFA002063
:103960000F9010900FA91848FEF7A6FE08B1FDF7BA
:1039700080FA60200890002009900A900B900C902B
:103980000D900E90082208A90F48FFF739F808B1EA
:10399000FDF76FFA002000900190029003900490D0
:1039A0004FF4005005900020079069460648FEF746
:1039B00049FE08B1FDF75DFA0348FEF791FF15B027
:1039C00000BD0000002C01403801002000B589B086
:1039D0000020079008901C216846FCF7BAFB4FF0C6
:1039E0008040174908600320486000211448816026
:1039F00040F2E731C160002101618161FFF782F887
:103A000008B1FDF736FA00200790089007A90C4886
:103A1000FEF752FE08B1FDF72CFA6020009000205E
:103A2000019002900490042269460548FEF7E8FFE1
:103A300008B1FDF71EFA0248FEF752FF09B000BDBB
:103A40008001002000B589B00020079008901C215B
:103A50006846FCF77EFB1848184908600320486058
:103A600000211648816040F2E731C1600021016108
:103A70008161FFF747F808B1FDF7FBF900200790D7
:103A8000089007A90D48FEF717FE08B1FDF7F1F9F8
:103A9000602000900020019002900490002269466E
:103AA0000648FEF7ADFF08B1FDF7E3F90348FEF75E
:103AB00017FF09B000BD000000040040C80100204D
:103AC00000B589B00020079008901C216846FCF7DB
:103AD00040FB184818490860032048600021164838
:103AE000816040F2E731C160002101618161FFF72F
:103AF00009F808B1FDF7BDF900200790089007A963
:103B00000D48FEF7D9FD08B1FDF7B3F9602000902C
:103B100000200190029004900C2269460648FEF7AE
:103B20006FFF08B1FDF7A5F90348FEF7D9FE09B00C
:103B300000BD0000000800401002002010B50B4836
:103B40000B4908604FF4E13048600021084881606B
:103B5000C16001610C21416100218161C161FFF7F8
:103B6000ADF808B1FDF785F910BD00000044004034
:103B70005802002000BFFEE700BFFEE770470000CC
:103B800008B508490968C9084FF47A72B1FBF2F127
:103B90004143009100BF00BF00994A1E00920029D6
:103BA000F9D108BD0C000020704710B5FEF780F871
:103BB00010BD00B593B0282109A8FCF7CAFA14215A
:103BC00004A8FCF7C6FA0020009001900290039030
:103BD0000120099000040A9000200B9001200D9014
:103BE00002201090C10311914FF4E011129109A825
:103BF000FEF7DCFA08B1FDF73CF90F200490022033
:103C00000590002006904FF48060079000200890F7
:103C1000022104A8FEF7A6F908B1FDF72AF902204F
:103C20000090800302906846FEF704F908B1FDF7A2
:103C300020F913B000BD704710B502681C4B9842C4
:103C400008D0B0F1804F05D01A4B984202D01A4BE1
:103C5000984203D122F070024B681A43144B9842E9
:103C600008D0B0F1804F05D0124B984202D0124BD1
:103C7000984203D122F44072CB681A4322F08003A9
:103C80004C6943EA040202608B68C3620B6883627A
:103C9000074B984201D10B69036301234361036918
:103CA00003F001031BB1036923F00103036110BD9D
:103CB000002C0140000400400008004030B501F035
:103CC0001F05012404FA05F3046A9C430462046A94
:103CD00001F01F0502FA05F52C43046230BD30B532
:103CE0000C46816821F47F4142EA0325254329439C
:103CF000816030BD0A46816821F0700142F00703FF
:103D0000194381607047000030B5026A056A25F0EA
:103D1000010505624368846924F0700424F00304FB
:103D20000D682C4322F002028D682A430D4DA842F3
:103D300006D100BF22F00802CD682A4322F0040217
:103D4000084DA84207D123F4807323F400734D6912
:103D50002B438D692B43436084614D684563026248
:103D600030BD0000002C014030B5026A056A25F024
:103D7000100505624368846924F4E04424F4407427
:103D80000D6844EA052422F020028D6842EA0512FB
:103D90000E4DA84207D100BF22F08002CD6842EA52
:103DA000051222F04002094DA84209D123F4806394
:103DB00023F400634D6943EA85038D6943EA850373
:103DC000436084614D688563026230BD002C014010
:103DD00030B5026A056A25F4807505624368C469D6
:103DE00024F0700424F003040D682C4322F40072C4
:103DF0008D6842EA05220F4DA84207D100BF22F488
:103E00000062CD6842EA052222F48062094DA84290
:103E100009D123F4805323F400534D6943EA051379
:103E20008D6943EA05134360C4614D68C56302624E
:103E300030BD0000002C014030B5036A056A25F44E
:103E4000805505624468C26922F4E04222F440725F
:103E50000D6842EA052223F400538D6843EA0533D6
:103E6000064DA84204D124F480444D6944EA8514E7
:103E70004460C2614D680564036230BD002C01409E
:103E800030B50B461446026A056A25F00105056245
:103E9000816921F0F00141EA041122F00A021A437B
:103EA0008161026230BD30B50B461446026A056A74
:103EB00025F010050562816921F4704141EA043161
:103EC00022F0A00242EA03128161026230BD00BF0B
:103ED00000BF02680C3252E8002F22F49071026891
:103EE0000C3242E80013002BF3D100BF00BF00BF2B
:103EF0000268143252E8002F22F0010102681432E5
:103F000042E80013002BF3D100BF016B01290ED151
:103F100000BF00BF02680C3252E8002F22F01001EF
:103F200002680C3242E80013002BF3D100BF2021BD
:103F300080F84210002101637047000070B504460C
:103F40002168096921F44051E26811432268116136
:103F50002269A1681143626941EA02052168C968C2
:103F600041F20C62914329432268D160216849697A
:103F700021F44071A2691143226851612D4A2168E0
:103F8000914202D1FEF7CAF801E0FEF7B7F800EB64
:103F9000C00101EB001162689200B1FBF2F100EB8D
:103FA000C00202EB001263689B00B2FBF3F26423D1
:103FB000B2FBF3F202EBC20303EB0212A1EB8201AC
:103FC000322202EB01116422B1FBF2F101F0F001A7
:103FD00000EBC00202EB001263689B00B2FBF3F23D
:103FE0006423B2FBF3F201EB021200EBC00101EB20
:103FF000001163689B00B1FBF3F100EBC00303EB1E
:1040000000136668B600B3FBF6F36426B3FBF6F361
:1040100003EBC30606EB0313A1EB8301322303EB8F
:1040200001116423B1FBF3F101F00F011144226887
:10403000916070BD003801402DE9F84304460D46FB
:1040400017469846089E31E0701C70B3FDF79CFA45
:10405000A0EB0800B04200D816B90320BDE8F883F1
:104060002068C06800F00400F8B1802D1ED0402DFB
:104070001CD020680068C0F3C000B0B100BF0020B1
:10408000009020680068009020684068009000BFA1
:1040900000BF2046FFF71BFF0820606400BF002020
:1040A00084F8400000BF0120D8E7FFE720680068DF
:1040B0002840A84201D1012000E00020B842C3D02E
:1040C0000020CBE700BFFEE70FB4054B10B503A9F6
:1040D000044A029800F0F6F810BC5DF814FB0000EA
:1040E000F54900086C00002002480068C0F3022077
:1040F000704700000CED00E010B5002804DB0A0753
:10410000130E054A135406E00A07140E034A00F082
:104110000F031B1FD45410BD00E400E018ED00E0B5
:1041200002E008C8121F08C1002AFAD17047704780
:10413000002001E001C1121F002AFBD170470000DE
:104140002DE9FF5F82B00021DDE90430020DDDF8CA
:1041500040B0034318D044F61050A2F2FF3242435D
:104160001514119801281FD0A5EB0B00401C5FEA25
:10417000000A4FF000064E4FDFF83891B046504627
:1041800015D5CAF1000413E0119801244AA30128AF
:1041900001D16FEA0B010298119AC0E90031C0E920
:1041A000024206B0BDE8F09FCBF10000DFE7044615
:1041B0000021404A491842EB0450CDE9001012E0BA
:1041C000E00707D032463B4640464946FCF74BF9EC
:1041D0008046894632463B4610461946FCF743F96D
:1041E00006460F466410002CEAD1DDE90401DDE942
:1041F0000023BAF1000F06DAFCF735F942464B46C8
:10420000FCF731F905E0FCF7EEFA42464B46FCF7C5
:10421000EAFA04460E460022284BFCF76BFB03D853
:104220004FF0FF30014607E00022254B2046314683
:10423000FCF772F8FCF746FB102409E0002C0ADBBF
:104240000A220023FCF7E9F9039B30321A55641E59
:1042500050EA0102F2D1641C039AC4F11103144420
:10426000119A012A03D0012208430DD10AE0084324
:1042700004D000204FF0110B119072E7A3EB0B0557
:104280006D1E0DE05B4504DD4FF0000205F10105F8
:1042900004E003DA4FF00002A5F10105002AECD09A
:1042A00002981199C0E90231C0E9004579E70000A0
:1042B000000014400000F03F300000000000F04318
:1042C0000000E03F2DE9FF4F95B09B46894606462A
:1042D00000250FE2252877D100242746F84A01213E
:1042E000059400E0044316F8013F203B01FA03F077
:1042F0001042F7D130782A2811D06FF02F03307890
:10430000A0F13002092A16D8059A44F0020402EB03
:10431000820203EB42021044761C0590EFE759F845
:10432000042B0592002A03DA504244F4005405900D
:1043300044F00204761C30782E2816D116F8010FAE
:1043400044F004042A280DD06FF02F023078A0F139
:104350003003092B09D807EB870302EB4303C71887
:10436000761CF3E759F8047B761C30786C280FD064
:1043700006DC4C2817D068280DD06A2814D104E038
:10438000742810D07A280FD10DE044F400140AE00C
:1043900044F4801401E044F440147278824202D163
:1043A00004F58014761C761C307866280BD013DC5C
:1043B000582877D009DC002875D04528F6D0462843
:1043C000F4D047281AD19DE118E0632835D064283D
:1043D00079D0652812D195E1702873D008DC672860
:1043E000F1D069286FD06E280DD06F2806D1B5E0C6
:1043F00073282CD0752875D0782874D05A46179910
:1044000090476D1C75E1C4F30250022809D00328BF
:104410000DD0D9F8001004280DD00D6009F1040961
:1044200067E1D9F80010EA17C1E90052F6E7D9F8B8
:1044300000100D80F2E70D70F0E719F8041B8DF8FD
:10444000001000208DF80100EA46012003E059F831
:1044500004AB4FF0FF3061074FF0000102D40DE0D4
:1044600008F101018846B9420FDA8045F8DB1AF8F5
:1044700008100029F4D108E008F1010188468142C2
:10448000FADB1AF808100029F6D105985B46A0EB74
:10449000080721463846179A00F094FA284400EBA2
:1044A000080507E04DE029E10DE01AF8010B5A4636
:1044B00017999047B8F10108F7D25B462146384674
:1044C000179A13E142E00A220092C4F302524FF01D
:1044D000000A022A08D059F804CB032A4FEAEC71EB
:1044E0000AD00DE029E02AE009F1070121F00702D6
:1044F000F2E802C1914609E00FFA8CFC4FEAEC7138
:10450000042A03D14FFA8CFC4FEAEC71002907DA38
:104510000A460021DCF1000C61EB02012D2202E0D1
:10452000220504D52B228DF80420012203E0E207A6
:1045300001D02022F7E7904659E00A2102E010223C
:104540000DE010214FF0000A00910BE010224FF017
:10455000000A44F004040827009203E008224FF008
:10456000000A0092C4F30252022A05D059F804CB83
:104570000021032A08D009E009F1070121F0070210
:10458000F2E802C1914605E01FFA8CFC042A01D131
:104590000CF0FF0C4FF00008220728D5702806D039
:1045A000009B83F0100353EA0A0305D00EE040227B
:1045B0008DF80420012208E05CEA010206D03022D6
:1045C0008DF804208DF8050002229046009B83F0B0
:1045D000080353EA0A030AD15CEA010201D1620727
:1045E00005D530228DF804204FF001087F1E582891
:1045F00004D034A003900EA802900DE036A0F9E795
:1046000053466046009AFCF708F884460398825C9B
:104610000298401E029002705CEA0100F0D10298FC
:1046200006A9081A00F1200A600702D524F4803494
:1046300000E00127574502DDA7EB0A0000E000205B
:1046400000EB0A01009005984144401A0590E003F0
:1046500006D45B462146179A059800F0B3F9054445
:10466000002706E001A85A46C05D179990476D1CC7
:104670007F1C4745F6DBE0030CD55B462146179AC5
:10468000059800F09FF9054404E030205A46179938
:1046900090476D1C0099481E00900029F5DC08E049
:1046A000029802995A460078491C0291179990473E
:1046B0006D1CBAF10001AAF1010AF1DC65E100000C
:1046C00009280100303132333435363738396162E8
:1046D00063646566000000003031323334353637AC
:1046E00038394142434445460000000000F058F983
:1046F0000544761C307800287FF4ECAD19B02846CC
:10470000BDE8F08F620700D4062709F1070222F006
:10471000070CFCE80223E14603F000485FEA080CBE
:1047200002D00FF2702C0DE05FEA045C02D50FF2AC
:10473000682C07E05FEAC47C02D00FF2602C01E035
:10474000AFF2700C4FF0FF3823F00043CDF850C0AB
:1047500065280CD006DC452809D046281DD04728FE
:104760003DD13DE0662818D067287ED138E0002191
:10477000112F01DB112000E0781CCDE9000106A912
:104780000EA8FFF7DDFCDDE90F010E9A0391002171
:10479000009207F1010A04914DE04FF000400097AC
:1047A000CDE9011006A90EA8FFF7CAFCDDE90F024A
:1047B00003920E9B11990022DDF80CA00093049245
:1047C00011B9791C00EB010AB7EB0A0004D4C0F15F
:1047D000FF3007F1010A0490AAEB0700019044E0C2
:1047E000012F00DA01270021112F01DD112000E047
:1047F0003846CDE9000106A90EA8FFF7A1FCDDE9C6
:104800000F010E9A0391002104910092BA462107EC
:104810000CD40399514500DA8A46BAF1010F05DD3F
:10482000009AAAF10101515C302908D0B84202DA9D
:1048300010F1040F06DA0121CDE9011015E0AAF10B
:104840000101E9E7002805DC049901440491AAEB81
:10485000000102E0411C514500DD8A460499401ADE
:10486000401C01904FF000400290200704D40198B2
:10487000504501DBCDF8048000208DF84F000298F0
:104880000DF14F07B0F1004F25D02B200E9002986C
:104890004FF0020800280CDA404202902D200E90C2
:1048A00007E00A210298FBF7A2FE3031029007F8D8
:1048B000011DB8F10001A8F10108F2DC02980028FE
:1048C000EFD1791E0E980870307800F0200040F08B
:1048D000450007F8020D12A8C01B00F10708149844
:1048E000007800B1012000EB0A01019801EBE071B2
:1048F00005984144401A401E0590E00306D45B46EB
:104900002146179A059800F05DF805441498007840
:1049100018B15A46179990476D1CE00324D55B46A1
:104920002146179A059800F04DF805441CE00498BC
:10493000002807DBDDE90301884203DD0098405CC5
:10494000179901E0179930205A469047049805F1CD
:104950000105401C04900198401E019004D12E20B6
:104960005A46179990476D1CBAF10001AAF1010A45
:10497000DDDC05E017F8010B5A46179990476D1CCE
:10498000B8F10001A8F10108F4DC5B462146179A52
:104990000598ABE62D0000002B0000002000000071
:1049A0002DE9F041044600251E461746880404D42C
:1049B00005E039462020B0476D1C641EF9D5284615
:1049C000BDE8F0812DE9F041044600251E469046E1
:1049D000C80301D5302700E02027880404D505E06E
:1049E00041463846B0476D1C641EF9D52846BDE8DF
:1049F000F081000013B50C460A23012269460248E3
:104A0000FEF7DAF900981CBD58020020FDF75CF9AA
:104A1000FFF7CFF8FEF7F2FEFEF7DEFEFEF76AFFC5
:104A2000FEF7D4FFFFF70EF8FFF74AF8FFF786F816
:104A3000FEF7A2FEFEF740FFFEF7E6FCFCF730F9BA
:104A400000210C48FEF7D0F804210B48FEF7CCF803
:104A50000C210A48FEF7C8F808210948FEF7C4F8F7
:104A600004200849887004E0FBF79CFF6420FCF7F1
:104A7000E1FBF9E7C80100208001002010020020BE
:104A8000380100201400002002030405060708096D
:104A90000A0B0C0D0E0F10100102000000000000A8
:104AA00000000102030406070809000000000102DB
:104AB000030400004265666F72652046696C746588
:104AC00072203D3E20416363656C20583A20256486
:104AD0002C20593A2025642C205A3A2025642C2079
:104AE0004779726F20583A2025642C20593A256462
:104AF0002C205A3A2025640041667465722046696C
:104B00006C746572203D3E20416363656C20583AA9
:104B10002025642C20593A2025642C205A3A20253F
:104B2000642C204779726F20583A2025642C205934
:104B30003A25642C205A3A20256400005C4B00087A
:104B4000000000207000000020410008CC4B00084D
:104B500070000020480600003041000800000000FE
:104B6000100000000100000000127A0000007A45E9
:104B7000E80300000000000000000000000000004A
:104B80000AD7A33C00000000000000000000000065
:104B90006F12833A0C020B3F0AD7A33C00000000BF
:104BA00000000000000000006F12833A0C020B3F6F
:104BB0000AD7A33C00000000000000000000000035
:0C4BC0006F12833A0C020B3F0000000053
:04000005080000ED02
:00000001FF
