:020000040800F2
:10000000D047002099010008955600085F46000877
:1000100091560008011A0008215E00080000000047
:1000200000000000000000000000000001010008C6
:10003000111B00080000000045010008F9580008E5
:10004000B3010008B3010008B3010008B3010008C0
:10005000B3010008B3010008B3010008B3010008B0
:10006000B3010008B3010008B3010008B3010008A0
:10007000B3010008B3010008B3010008B301000890
:10008000B3010008B3010008B3010008B301000880
:10009000B3010008B3010008B3010008B301000870
:1000A000B3010008B3010008B3010008B301000860
:1000B000B3010008B3010008B3010008B301000850
:1000C000B3010008B3010008B3010008B301000840
:1000D000B3010008B3010008B3010008B301000830
:1000E000B3010008B3010008B3010008DFF80CD029
:1000F00000F0D0FC00480047696D0008D0470020A0
:10010000224B19680868B0E8F00F80F30988BFF344
:100110006F8F4FF0000080F311884EF00D0E704786
:100120000000000006480068006880F3088862B696
:1001300061B6BFF34F8FBFF36F8F00DF00BF00BF0B
:1001400008ED00E0EFF30980BFF36F8F0F4B1A68E3
:1001500020E9F00F106008B54FF0500080F31188CF
:10016000BFF34F8FBFF36F8F07F060FA4FF00000BF
:1001700080F31188BDE8084019680868B0E8F00FFE
:1001800080F30988BFF36F8F704700BF1000002015
:10019000EFF3058070470000064880470648004797
:1001A000FEE7FEE7FEE7FEE7FEE7FEE7FEE7FEE727
:1001B000FEE7FEE791590008ED000008202A04DB65
:1001C000203A21FA02F00021704721FA02F3D040D0
:1001D000C2F12002914008431946704740EA0103EA
:1001E0009B0703D009E008C9121F08C0042AFAD2ED
:1001F00003E011F8013B00F8013B521EF9D27047B1
:10020000D2B201E000F8012B491EFBD27047002258
:10021000F6E710B513460A4604461946FFF7F0FF05
:10022000204610BD0246C9B200E0401C0378002BF6
:10023000FBD102E003788B4203D0401E9042F9D2FA
:1002400000207047F0B480EA0102D40F4200B2EB04
:10025000410F02D20246084611464A0042D0C30D61
:10026000DDB2C1F3C752AD1A202D35DAC1F3160144
:1002700041F4000204B15242C5F1200602FA06F12F
:100280002A411044B3EBD05F23D0C4B1012DA0EBC1
:10029000C35009DCF0BC4FF0004202EAC352DBB2AB
:1002A00000F5000000F0B5BA400000F1807000EBEE
:1002B000C350A0F1807040EAD170490009E04908BC
:1002C00041EAC071A0EBC35000F50000400800EB0C
:1002D000C350F0BC00F094BA6142012202EB41012C
:1002E000001BF6E7F0BC704781F00041AAE780F000
:1002F0000040A7E780EA010210B502F00043400089
:1003000022D04A001FD0010E01EB1261C0F356004B
:10031000C2F3560240F4000042F40002A0FB0220A7
:1003200000047F39140400D0401C50EA124001D46C
:100330004000491EC2B20C0604EBD010401C40081D
:10034000802A02D003E0002010BD20F00100002927
:1003500000DA0020184310BD30B480EA010202F038
:10036000004530F0004221F0004013D090B1C30DA1
:10037000D40DC2F31601C0F31600E41A41F40001D3
:1003800040F400027D34914201D3641C00E0490036
:10039000002C02DA30BC002070474FF4000000232C
:1003A000914201D3891A034340084FEA4101F7D132
:1003B00051B1914202D14FF0004105E002D24FF01D
:1003C000010101E06FF0010103EBC450284430BC8F
:1003D00000F016BA2DE9FE4F804681EA0300C00FF7
:1003E0000C46009021F0004123F00045B8EB0200DC
:1003F000A94105D24046214690461C460B4602467E
:1004000023F00040104347D0270DC7F30A00C3F381
:100410000A510290401A019040286BDAC3F313008E
:1004200040F4801B0098924620B10023D2EB030ACF
:1004300063EB0B0B01985946C0F14002504600F0A7
:10044000BEF906460D4650465946019A00F0C6F9D7
:1004500010EB08006141002487EA115284EAE77337
:100460001A4340D0009A62B3019A012A4FEA075218
:1004700015DC001B61EB02014FF0004202EA07525B
:10048000CDE90042001C41F5801132462B4600F0B8
:10049000FDF903B0BDE8F08F40462146F9E7001BA7
:1004A00061EB0201001C41F5801300185B4120182C
:1004B000A2F5001747EB030140EAD570B6196D416C
:1004C00011E06D084FEA360645EAC0754FEA07525B
:1004D000001B61EB0201001C41F5801149084FEA45
:1004E00030000019514132462B4603B0BDE8F04FB1
:1004F00000F0BDB90098012240000023D0EB0202B9
:1005000063EBE073009821464FEAE074B8EB00001B
:1005100061EB0401E9E783F000435BE781F0004110
:1005200058E72DE9FE4F81EA030404F0004421F06E
:10053000004100944FF0000B23F0004350EA010407
:100540005ED052EA03045BD0C3F30A54C1F30A55E8
:100550002C44A4F2F3340194A0FB0254C1F3130120
:1005600041F48011C3F3130343F4801301FB0244ED
:1005700000FB034E840A970A44EA815447EA8357F2
:10058000A4FB076802958D0A05FB07854FEA932CAB
:1005900004FB0C542705029D4FEA065847EA16371C
:1005A000B5EB08056EEB070C870E920E47EA811734
:1005B00042EA8312A7FB0201B6EB0B0164EB0004D5
:1005C0002B0D43EA0C335E1844EB1C50DA465146BF
:1005D000E7FB0201C5F313044FEA0B3343EA14535C
:1005E0004FEA0432019C43EA0603A4F10C0402948E
:1005F000009CCDE900B400F049F903B0BDE8F08FEC
:1006000000200146F9E7C10F80EAE0700844CA07FC
:100610009623002100F0FDB80EB5C10F80EAE0700E
:100620000844CA07002140F233438DE80E000A4611
:100630000B4600F02BF903B000BD00F0004220F0A3
:100640000040C10DC0F3160040F400007F2901DA1C
:1006500000207047962903DCC1F19601C84001E0F3
:1006600096398840002AF4D04042704770B5C1F3F3
:100670000A5201F000450024C1F3130140F2FF3398
:1006800041F480119A4201DA002070BD40F23343F8
:100690009A42A2F2334203DC5242FFF78FFD00E0A0
:1006A00090402C43F1D0404270BD00F0004230F049
:1006B00000400AD0C10D01F56071C0F3160042EA96
:1006C0000151C2084007114370470020014670479E
:1006D00001F0004330B421F0004150EA010206D09D
:1006E0000A0DA2F56072C1F31301002A02DC30BCCE
:1006F00000207047440F44EAC104C100E01830BC38
:1007000000EBC25000F07CB8002801DBC0F10040D3
:10071000002901DBC1F1004181427047002801DB63
:10072000C0F10040002901DBC1F10041884270475F
:1007300030B50B46014600202022012409E021FAB1
:1007400002F59D4205D303FA02F5491B04FA02F5AE
:100750002844151EA2F10102F1DC30BD2DE9F05F45
:100760000546002092469B46884606468146402420
:100770001BE02846414647462246FFF71FFD5346E9
:100780005A46C01A914110D311461846224600F02D
:1007900016F82D1A67EB01084F462246012000216A
:1007A00000F00DF817EB00094E41201EA4F10104E2
:1007B000DFDC484631462A464346BDE8F09F202A02
:1007C00004DB203A00FA02F1002070479140C2F1A8
:1007D000200320FA03F3194390407047202A06DBD8
:1007E000CB17203A41FA02F043EAE07306E041FAFF
:1007F00002F3D040C2F120029140084319467047ED
:100800000029A8BF7047401C490008BF20F0010024
:10081000704710B4B0FA80FC00FA0CF050EA010402
:1008200004BF10BC704749B1CCF1200421FA04F494
:1008300011FA0CF118BF012121430843A3EB0C016D
:10084000CB1D4FEA00614FEA102042BF002010BCD0
:10085000704700EBC35010440029A4BF10BC704780
:10086000401C490008BF20F0010010BC704710B5C3
:10087000141E73F1000408DA401C41F100019218C3
:100880005B411A4301D120F0010010BD2DE9F04D6C
:1008900092469B4611B1B1FA81F202E0B0FA80F2C1
:1008A00020329046FFF78BFF04460F4640EA0A00CD
:1008B00041EA0B0153465A46084313D0114653EA06
:1008C000010019D0C8F140025046FFF777FC0546F9
:1008D0000E46504659464246FFF771FF084305D081
:1008E000012004E020463946BDE8F08D0020054394
:1008F00046EAE0762C4337430A986305E40AA0EB06
:1009000008000022FD0A44EA47540A3002D50020BC
:100910000146E9E7010510196941DDE908450019BB
:100920006941BDE8F04DA2E72DE9F04D81EA0304ED
:1009300004F0004B21F0004514464FF0000A23F06C
:10094000004150EA050220D054EA01021DD0C5F34F
:100950000A570246C5F31303C1F31300C1F30A5645
:1009600040F4801543F48013A7EB0608101BD6460D
:1009700008F2FD3873EB050002D308F1010801E02D
:1009800092185B41B8F1000F03DA00200146BDE880
:10099000F08D00204FF48011064684460EE0171BB0
:1009A00073EB050705D3121B63EB050306434CEA03
:1009B000010C49084FEA300092185B4150EA0107E8
:1009C000EDD152EA030012D082EA040083EA050165
:1009D000084305D0101BAB4106D20122002306E0DC
:1009E00000224FF0004302E06FF0010253101AEBB7
:1009F00006004CEB085110EB0A0041EB0B01BDE87F
:100A0000F04DFFF734BF70B521F0004303430CD025
:100A1000C1F30A550024D5EB040564EB0403D61793
:100A2000AD1AB34102DB0020014670BD201841EB36
:100A3000025170BDC1F30A52C1F3130140F2FF33FA
:100A400041F480119A4202DA00200146704740F2D8
:100A500033439A42A2F2334202DC5242FFF7AEBB6A
:100A6000FFF7ADBE30B5041E71F1000404DB4FF09A
:100A70000044404264EB0101141E73F1000405DBE5
:100A80001C464FF00043524263EB0403994208BFF7
:100A9000904230BD064C074D06E0E06840F001038F
:100AA00094E8070098471034AC42F6D3FFF722FBD6
:100AB000707B0008907B0008420005D0C0F3C7524D
:100AC0005242914201DC0020704700EBC150704758
:100AD0002DE9F04D00231A461B1A8A4103DB002042
:100AE0000146BDE8F08DC1F30A52C1F3130141F490
:100AF00080154FF0000BD10702D100186D41521E36
:100B00000027044640F2FF11384601EB620A3E46D8
:100B10008046024600204FF48011FFF74FFBC219B8
:100B20007141BB1846EB0100B4EB030C75EB000CF4
:100B300004D3E41A65EB000517460E46241908F1A4
:100B400001006D4180463428E3DDF91946EB0600CB
:100B5000091BA84103D24FF0FF32134601E00022E7
:100B600013461BEB070046EB0A51BDE8F04DFFF7BB
:100B70007EBE70B58C1810F8015B15F0070301D12B
:100B800010F8013B2A1106D110F8012B03E010F8F0
:100B9000016B01F8016B5B1EF9D12B0705D4002313
:100BA000521E0DD401F8013BFAE710F8013BCB1AB5
:100BB000921C03E013F8015B01F8015B521EF9D5AA
:100BC000A142D8D3002070BD70B50446002520682E
:100BD000806800F0010018B32068806820F00100F0
:100BE0002168886001F0FEFE054613E001F0FAFE80
:100BF000401B02280ED92068806800F0010048B12F
:100C0000A06A40F01000A062E06A40F00100E062DB
:100C1000012070BD2068806800F001000028E5D147
:100C20000020F6E72DE9F05F784A911E881E04F057
:100C3000BFF8764A921D911E881E04F0FFF8734893
:100C4000001F008872490988401A00B26F49091FC5
:100C50000880084640886E494988401A00B26B49AE
:100C6000091F48800846808869498988401A00B26F
:100C70006649091F88800846C0886549C988401AA6
:100C800000B26249091FC880084600896049098985
:100C9000401A00B25D49091F0881084640895C4935
:100CA0004989401A00B25949091F4881B1F9000029
:100CB000FFF7A9FC04462146564800F0A3FE55491B
:100CC0008868FFF7BAFC00B25049091F0880B1F9E3
:100CD0000200FFF798FC044621464E48183000F009
:100CE00091FE4C49086AFFF7A8FC00B24749091F6A
:100CF0004880B1F90400FFF786FC044621464548C8
:100D0000303000F07FFE4349886BFFF796FC00B25D
:100D10003E49091F8880B1F90600FFF77DFC0646B1
:100D20004FF033323C4BFFF7FCFB804689463B4992
:100D3000B1F90000FFF770FC06464FF03332384B34
:100D4000FFF7EFFB824642464B46FFF743FB044664
:100D5000FFF78CFC00B22D49091FC8800846C088E7
:100D60002E4908802949091FB1F90800FFF754FCF2
:100D700006464FF03332284BFFF7D3FB04460D46AF
:100D80002649B1F90200FFF747FC06464FF033321F
:100D9000234BFFF7C6FB804622462B46FFF71AFB84
:100DA0008246FFF763FC00B21849091F0881084614
:100DB00000891A4948801549091FB1F90A00FFF74F
:100DC0002BFC06464FF03332134BFFF7AAFB0446C9
:100DD0000D461249B1F90400FFF71EFC06464FF01C
:100DE00033320F4BFFF79DFB804622462B46FFF721
:100DF000F1FA8246FFF73AFC00B20449091F488124
:100E00000846408905498880BDE8F09FB04200202F
:100E100098430020D40000203333C33FA0000020BB
:100E20003333EB3FF0B58BB01E25002009900A90BC
:100E3000079008900526471F41E000BFFFF7F2FE2C
:100E4000BDF81C004949C988401A00B2ADF8240019
:100E5000BDF81E0045490989401A00B2ADF82600C8
:100E6000BDF8200041494989401A00B2ADF8280078
:100E70003E48C088ADF81C003C480089ADF81E0013
:100E80003A484089ADF82000BDF9240010F1050F63
:100E9000D4DBBDF9260010F1050FCFDBBDF928002A
:100EA00010F1050FCADBBDF924000528C6DCBDF929
:100EB00026000528C2DCBDF928000528BEDC281E56
:100EC000A5F10101CDB2B8D1182101A8FFF79FF912
:100ED00000242CE0FFF7A6FE642C26DB2349B1F9A1
:100EE00000100198084401902049B1F902100298BD
:100EF000084402901D48B0F90400A0F57C50FF386A
:100F00000399084403901949B1F90610049808445C
:100F100004901649B1F90810059808440590134942
:100F2000B1F90A10069808440690601C84B2B4F522
:100F3000B27FCFDB0198001200B20D490880029801
:100F4000001200B248800398001200B28880049812
:100F5000001200B2C8800598001200B208810698FD
:100F6000001200B248810BB0F0BD0000AC4200207E
:100F7000984300202DE9F041A3480088A349088048
:100F8000A348007820B1012813D003287ED136E091
:100F90000020A0490880A0490880A0490880A049F5
:100FA0000880A0480078032802D1012098490870E1
:100FB0000FE19648B0F9000040F21A4188421DDD69
:100FC00003209349087000BF5C2197A0FFF72AF91E
:100FD00028B15C2194A0FFF725F9401C00E092A005
:100FE00004464FF49572214694A004F01BFF99A08B
:100FF00004F018FF9CA004F015FF00BFE9E083484F
:10100000B0F90000B0F5FA6F02DD4FF4FA600BE0C2
:101010007E48B0F90000B0F57A7F02DA4FF47A70BA
:1010200002E07A48B0F90000A0F57A7000B2774982
:1010300008808F4801880088401C8D4A10806429F0
:1010400023DD00BF5C2178A0FFF7ECF828B15C211C
:1010500075A0FFF7E7F8401C00E073A0044640F2DB
:101060003112214675A004F0DDFE6748B0F900207A
:101070006648B0F900107FA004F0D4FE7AA004F016
:10108000D1FE00BF00207A49088000E0A0E05F4860
:10109000B0F900001E2809DA00205E4908805E4988
:1010A00008805E4908805E49088092E05748B0F9A0
:1010B0000000B0F5617F02DD4FF4617009E0534834
:1010C000B0F90000002801DA002002E04F48B0F932
:1010D0000000504908805049088050490880504914
:1010E0000880694AD169694AD069FFF7ABF80746B9
:1010F0006748C1693846FFF7A5F805464848B0F982
:101100000000FFF780FA06462946FFF79BF80446E1
:10111000FFF793FA00B2424908805C48C06980F04A
:1011200000475948C1693846FFF78CF806465848C9
:10113000C1693046FFF7D8F805463848B0F90000D5
:10114000FFF761FA80462946FFF77CF80446FFF76F
:1011500074FA00B2314908804C48C06980F00047F9
:101160004948C1693846FFF7BFF806464848C16993
:101170003046FFF767F805462748B0F90000FFF74B
:1011800042FA80462946FFF75DF80446FFF755FA14
:1011900000B2214908803C4AD1693C4AD069FFF736
:1011A000A3F807463A48C1693846FFF79DF8054657
:1011B0001848B0F90000FFF726FA06462946FFF75F
:1011C00041F80446FFF739FA00B21249088000E0FE
:1011D00000BF00BF1248B0F900002E4909684863FB
:1011E0000E48B0F900002C49096888630A48B0F934
:1011F00000002A490968C8630648B0F90000284978
:1012000009680864BDE8F08184430020BA0000202A
:10121000B1000020B8000020B6000020B40000207B
:10122000B2000020980000202E2E5C4170705C41BE
:1012300070705F466C696768742E63001B5B313B9E
:1012400033366D0D0A5B44454255472025733A25D8
:10125000645D20004D4F544F522050726F63657390
:1012600073696E672E2E2E001B5B306D0D0A000019
:10127000BC000020746872203D2025642C20544856
:1012800052203D20256400004443002024430020D8
:1012900064430020F0020020A80200206002002029
:1012A0003803002070B504463D48007820B101287D
:1012B0000AD0032871D12CE03A480078032802D1E3
:1012C00001203749087069E00621374800F00AFC20
:1012D00000F0A2F803203249087000BF5C2133A05F
:1012E000FEF7A0FF28B15C2130A0FEF79BFF401C59
:1012F00000E02EA0054640F20512294630A004F079
:1013000091FD35A004F08EFD38A004F08BFD00BFE8
:1013100044E03848006838498861364840683749B1
:10132000886134488068364988613649B1F90600D9
:10133000FFF769F90546344801682846FEF7DAFFE9
:10134000324988612F49B1F90800FFF75CF9054679
:101350002D4801682846FEF7CDFF2D4988612949AF
:10136000B1F90A00FFF74FF90546274801682846FA
:10137000FEF7C0FF2749886122461F49244800F034
:101380006DFB22461D49214800F068FB22461C499E
:10139000204800F063FB01E0FFE700BF00BF70BD25
:1013A000B000002098000020800000202E2E5C411C
:1013B00070705C4170705F466C696768742E630082
:1013C0001B5B313B33366D0D0A5B4445425547206C
:1013D00025733A25645D20005049442050726F63A4
:1013E000657373696E672E2E2E0000001B5B306DD7
:1013F0000D0A0000B8420020C4420020044300202F
:10140000E4420020AC420020187B00082443002066
:10141000444300206443002010B521482149C8609E
:1014200000202149C8602149C8601E4908611E4941
:1014300008611E4908611B4948611B4948611B49F5
:1014400048611B49C8601B49C8601B49C8601849EE
:10145000086118490861184908611549486115492A
:1014600048611549486100BF5C2114A0FEF7DAFE0F
:1014700028B15C2111A0FEF7D5FE401C00E00FA0B2
:10148000044640F26912214611A004F0CBFC16A0DC
:1014900004F0C8FC1AA004F0C5FC00BF10BD000099
:1014A00000004040244300204443002064430020C7
:1014B000C442002004430020E44200202E2E5C4160
:1014C00070705C4170705F466C696768742E630071
:1014D0001B5B313B33366D0D0A5B4445425547205B
:1014E00025733A25645D20005049442050617261A3
:1014F0006D20496E697420446F6E65210000000004
:101500001B5B306D0D0A000010B53F488078052840
:1015100074D2DFE800F003182D425A004FF48051D6
:101520003A4803F084FB4FF40061384803F07FFB36
:101530004FF40041364803F07AFB4FF480413448C1
:1015400003F075FB5EE04FF48051304803F066FB1A
:101550004FF400612D4803F061FB4FF400412C482B
:1015600003F05CFB4FF48041294803F057FB49E04E
:101570004FF48051254803F063FB4FF4006123488A
:1015800003F05EFB4FF40041214803F059FB4FF498
:1015900080411F4803F054FB34E04FF480511B4856
:1015A00003F045FB4FF40061184803F040FB4FF493
:1015B0000041174803F032FB4FF48041144803F018
:1015C0002DFB0220104988701CE04FF480510F4819
:1015D00003F02DFB4FF400610C4803F028FB4FF49F
:1015E00000410B4803F023FB4FF48041084803F00F
:1015F0001EFB02200449887004E0FFE70120024935
:10160000887000BF00BF10BD7C00002000080140B2
:10161000000C014010B54248007820B101282AD0C2
:10162000022879D14FE03F48B0F9000040F206416E
:1016300088421FDC00BF5C213BA0FEF7F3FD28B110
:101640005C2139A0FEF7EEFD401C00E036A0044608
:10165000DC22214639A004F0E5FB3EA004F0E2FBC9
:1016600040A004F0DFFB00BF00204049887001204B
:101670002B49087051E02B48B0F9000040F2B271DC
:1016800088421FDB00BF5C2127A0FEF7CBFD28B1FD
:101690005C2125A0FEF7C6FD401C00E022A0044608
:1016A000E322214625A004F0BDFB31A004F0BAFBE3
:1016B0002CA004F0B7FB00BF03202C498870022047
:1016C0001749087029E01748B0F9000040F20641B8
:1016D00088421FDC00BF5C2113A0FEF7A3FD28B1E8
:1016E0005C2111A0FEF79EFD401C00E00EA0044608
:1016F000EA22214611A004F095FB21A004F092FB00
:1017000018A004F08FFB00BF042018498870032044
:101710000349087001E0FFE700BF00BF10BD0000F3
:1017200098000020844300202E2E5C4170705C41A4
:1017300070705F466C696768742E63001B5B313B99
:1017400033366D0D0A5B44454255472025733A25D3
:10175000645D2000656E74657220535441474532C4
:10176000000000001B5B306D0D0A00007C000020B3
:10177000656E746572205354414745330000000084
:10178000756E6C6F636B2073756363657373212073
:101790000000000070B54D4803F0EEFC58B9002081
:1017A0004B49086014224949091D4A48FEF716FDB5
:1017B000FFF730FF87E001F015F904464448006860
:1017C00010B94348046070BD41480068201A40F6D3
:1017D000B831884276D300BF5C213FA0FEF722FDDE
:1017E00028B15C213CA0FEF71DFD401C00E03AA0A2
:1017F0000546C02229463DA004F014FB41A004F098
:1018000011FB46A004F00EFB00BF00204549087004
:1018100004204549887040F2DC502E498880C880F9
:1018200048800846B0F9000040F24C41884221DC73
:101830004FF47A702749088003F0C2FB03F0E4FB01
:1018400000BF5C2124A0FEF7EDFC28B15C2122A0A2
:10185000FEF7E8FC401C00E01FA00546C822294610
:1018600022A004F0DFFA31A004F0DCFA2BA004F08F
:10187000D9FA27E032480068201AB0F5FA7F21D95A
:1018800014480088323800B21249088000BF5C2139
:1018900011A0FEF7C7FC28B15C210FA0FEF7C2FC27
:1018A000401C00E00CA00546CC2229460FA004F005
:1018B000B9FA24A004F0B6FA18A004F0B3FA00BFF5
:1018C0001F48046000BF00BF7DE70000A443002064
:1018D000A8000020844300202E2E5C4170705C41E3
:1018E00070705F466C696768742E63001B5B313BE8
:1018F00033366D0D0A5B44454255472025733A2522
:10190000645D2000446973636F6E6E656374696F14
:101910006E20646574656374656421001B5B306DC3
:101920000D0A0000980000207C00002052657374AE
:1019300061727420322E344720646F6E650000009F
:10194000AC000020446973636F6E6E6563742C2075
:10195000736C6F7720646F776E207468726F747425
:101960006C65000008B542F2107005F09DFD05F0B1
:101970003FFF009008E003F04DF900BF42F2107104
:10198000684605F0EBFE00BFF5E7000008B505F07E
:101990002FFF009011E0FFF745F9084A0849094870
:1019A00000F0E4F80548FFF77DFCFFF7E3FA00BF1D
:1019B0000621684605F0D2FE00BFECE7A69BC43BBB
:1019C000B8420020AC42002008B505F011FF00909D
:1019D00007E0FFF7DFFE00BF0421684605F0BEFE0A
:1019E00000BFF6E708B505F003FF009007E0FFF73A
:1019F0008BFD00BFC821684605F0B0FE00BFF6E7CA
:101A000000BFFEE72DE9F04104460D46216920683C
:101A1000FEF718FC606061696068FEF713FC06461B
:101A200031466068FEF798FCE0602846A168FEF742
:101A30005BFC0746E168FEF75DFC0646A168FEF721
:101A400001FCA0604FF07E50E168FEF74DFC0646B9
:101A50006168FEF74FFC2060BDE8F08170B5064676
:101A60000C4615462946204600F007F8E06930602C
:101A70002946304600F001F870BD2DE9F05F0446BC
:101A80000E462168A069FEF72FFC054661682846CE
:101A9000FEF72AFC80463146FEF75EFC07463146DB
:101AA0002846FEF727FC8046A168FEF7CBFBA06026
:101AB00060693946FEF71EFC8146A1682069FEF781
:101AC00019FC8246E0682946FEF714FC834651461D
:101AD000FEF7B8FB80464946FEF7B4FBE06165605F
:101AE000BDE8F09F10B5024600200EE0002352F83A
:101AF0002040E36152F82040636052F82040A36028
:101B000052F820402360431CD8B28842EEDB10BD5F
:101B10007047000001B582B04FF47A70012301AA2A
:101B200002A90090024802F043F89DF804000EBD9F
:101B30000802002072B600BFFEE700001CB5064890
:101B4000012100230A02CDE9001004A1064805F096
:101B5000D1FD05F02DFD1CBDC00000205374617245
:101B6000745F5461736B00002D58000807B59CB07A
:101B70004FF07C511E98FEF7BDFB0A90FE4880682E
:101B80000690FD48006805900699FEF7B3FB0890A3
:101B9000F948C0680690F848406805900699FEF735
:101BA000A9FB07900899FEF79FFB4FF08041099031
:101BB000FEF7A0FB1990F048C0680690EE488068D8
:101BC00005900699FEF796FB0890EB484068069052
:101BD000E948006805900699FEF78CFB0790089984
:101BE000FEF730FB4FF080410990FEF783FB1A901F
:101BF000E14880680590E048806804900599FEF708
:101C000079FB0790DC4840680590DB484068049009
:101C10000599FEF76FFB06900799FEF713FB4FF04F
:101C200080410890FEF766FB4FF07E510990FEF769
:101C30005EFB1B90D148B0F904000490FEF7E3FC72
:101C40000690CE48B0F904000490FEF7DCFC059045
:101C50000699FEF74FFB0890C848B0F902000290C1
:101C6000FEF7D1FC0490C548B0F902000290FEF7DF
:101C7000CAFC03900499FEF73DFB0690BF48B0F9FB
:101C800000000290FEF7BFFC0490BC48B0F90000D1
:101C90000290FEF7B8FC03900499FEF72BFB059029
:101CA0000699FEF7CFFA07900899FEF7CBFA09904C
:101CB00003F0F2FC0B901C98B0F900000890FEF7BE
:101CC000A2FC09900B99FEF715FB16901C98B0F931
:101CD00002000890FEF797FC09900B99FEF70AFBAB
:101CE00017901C98B0F904000890FEF78CFC09903E
:101CF0000B99FEF7FFFA18901A980790189806901B
:101D00000799FEF7F7FA09901B9807901798069025
:101D10000799FEF7EFFA08900999FEF7E5FA109097
:101D20001B980790169806900799FEF7E3FA09901A
:101D300019980790189806900799FEF7DBFA089013
:101D40000999FEF7D1FA1190199807901798069003
:101D50000799FEF7CFFA09901A98079016980690FF
:101D60000799FEF7C7FA08900999FEF7BDFA129095
:101D700010980890824801680898FEF7BBFA09900D
:101D800080480068014608900998FEF75BFA7D4993
:101D90000860119808907A4801680898FEF7AAFA36
:101DA000099078484068014608900998FEF74AFA79
:101DB0007449486012980890714801680898FEF7C5
:101DC00099FA09906F488068014608900998FEF7D3
:101DD00039FA6C4988601098014606906A48006894
:101DE000FEF788FA08901C98B0F906000590FEF7F7
:101DF0000AFC66490690FEF77DFA07900899FEF7FF
:101E000021FA09905F480068014608900998FEF79A
:101E100019FA13901198014606905B480068FEF786
:101E200069FA08901C98B0F908000590FEF7EBFBE2
:101E300056490690FEF75EFA07900899FEF702FAF7
:101E4000099050484068014608900998FEF7FAF951
:101E500014901298014606904B480068FEF74AFA23
:101E600008901C98B0F90A000590FEF7CCFB474992
:101E70000690FEF73FFA07900899FEF7E3F90990FC
:101E800040488068014608900998FEF7DBF91590F4
:101E9000159806903848C06805900699FEF72AFA0A
:101EA0000890149804903448806803900499FEF7D1
:101EB00021FA06903048406880F000400490139862
:101EC000014603900498FEF715FA05900699FEF76F
:101ED0000BFA07900899FEF707FA09900A99FEF79E
:101EE00009FA0F9015980690234880680590069986
:101EF000FEF700FA0890149804901F48C0680390F9
:101F00000499FEF7F7F90690139804901A480068B0
:101F100003900499FEF7EEF905900699FEF7E4F9AF
:101F200007900899FEF78EF909900A99FEF7E2F9F1
:101F30000E90159806901048406805900699FEF797
:101F4000D9F90890149804900B48006803900499FC
:101F5000FEF7D0F90690139804900748C0680390E4
:101F60000499FEF7C7F905900699FEF76BF90790FB
:101F70000899FEF7B9F90BE028010020AC420020D7
:101F800024010020C0430020200100202E9E8B3A17
:101F900009900A99FEF7AEF90D9015980690C2487F
:101FA000006805900699FEF7A5F90890149804902A
:101FB000BD48406803900499FEF79CF90690BA4822
:101FC000806880F0004004901398014603900498C4
:101FD000FEF790F905900699FEF734F907900899F5
:101FE000FEF730F909900A99FEF784F90C90AE4893
:101FF000006809900F99FEF725F9AB49086008467B
:10200000406809900E99FEF71DF9A74948600846F7
:10201000806809900D99FEF715F9A3498860084674
:10202000C06809900C99FEF70DF99F49C8600846F1
:10203000C06806900846C06805900699FEF75AF9F0
:1020400008909948806804909748806803900499A4
:10205000FEF750F906909448406802909248406814
:1020600001900299FEF746F904908F4800680290AB
:102070008D48006801900299FEF73CF9039004999D
:10208000FEF7E0F805900699FEF7DCF8079008994E
:10209000FEF7D8F8099003F0FFFA0B908248006829
:1020A00009900B99FEF726F97F49086008464068B9
:1020B00009900B99FEF71EF97B4948600846806835
:1020C00009900B99FEF716F9774988600846C068B1
:1020D00009900B99FEF70EF97349C86008464068ED
:1020E000014602904FF08040FEF704F903906E48DD
:1020F000C068014602900398FEF7FCF805906A4814
:102100000068014602904FF08040FEF7F3F803901C
:1021100065488068014602900398FEF7EBF804904A
:102120000599FEF7E1F809905F48006801460290C2
:102130004FF08040FEF7DEF803905B4840680146B0
:1021400002900398FEF7D6F805905748806801463C
:1021500002904FF08040FEF7CDF803905248C068DF
:10216000014602900398FEF7C5F804900599FEF722
:1021700069F808904C488068014602904FF0804012
:10218000FEF7B8F80390484880680146029003982B
:10219000FEF7B0F8059044484068014601904FF0C2
:1021A0008040FEF7A7F802903F4840680146019042
:1021B0000298FEF79FF84FF07E510390FEF797F8D4
:1021C00004900599FEF790F807901C98B0F90A0062
:1021D0000490FEF718FA35490590FEF78BF8069043
:1021E0004FF07E510698FEF799FA04D330490698CD
:1021F000FEF78AFA0DD21E990698FEF77BF8059035
:102200001D988068014604900598FEF71BF81D99FB
:1022100088600998FEF749FACDE9000104F032FB25
:102220004FF00052234BCDE90201FEF77AF9CDE9D8
:102230000401FEF74DFA1D990860DDE9071004F06E
:1022400059FC1D490590FEF755F81D9948601C98EA
:10225000B0F904000290FEF7D6F903900799FEF753
:1022600049F805901C98B0F902000090FEF7CBF9F0
:1022700001900899FEF73EF803901C98B0F9000011
:102280000090FEF7C0F901900999FEF733F802902B
:102290000399FDF7D7FF04900599FDF7D3FF074990
:1022A00008601FB000BD000028010020F6FF793D46
:1022B000000080BFDCA54C40E12E65421C010020DF
:1022C00038B5024600230020009000BF92F8240099
:1022D000012801D1022038BD012082F8240000BF6E
:1022E0004868072812D21068406B0C79641E04EB12
:1022F00084051F24AC40A0430D796D1E05EB8505B8
:102300000C68AC4020431468606327E048680D28DF
:1023100012D21068006B0C79E41F04EB84051F24B3
:10232000AC40A0430D79ED1F05EB85050C68AC4072
:1023300020431468206311E01068C06A0C790D3CDA
:1023400004EB84051F24AC40A0430D790D3D05EB43
:1023500085050C68AC4020431468E06208680A28D0
:1023600012D31068C0680C780A3C04EB44050724BB
:10237000AC40A0430D780A3D05EB45058C68AC40A8
:1023800020431468E0600FE0106800690C7804EBEB
:1023900044050724AC40A0430D7805EB45058C6847
:1023A000AC402043146820610868102802D00868F7
:1023B000112827D1174C1068A0421ED110688068E0
:1023C00000F40000F0B91068806840F40000146860
:1023D000A0600868102815D10F4800680F4CB0FBAA
:1023E000F4F000EB80004000009002E00098401EF6
:1023F000009000980028F9D104E0906A40F0200095
:102400009062012300BF002082F8240000BF18461C
:1024100061E70000002401400C00002040420F0052
:102420002DE9F0410446002700250026A84614B9EE
:102430000120BDE8F081A06810B1207D00B100BF8F
:10244000A06A30B90020E06284F82400204600F041
:1024500089F82046FEF7B8FB0746A06A00F0100096
:10246000002873D1002F71D1A06A20F4885040F069
:102470000200A062E16960680843217B40EA4100F4
:102480000643A068B0F5807F02D0A068012802D181
:102490004FF4807000E000200543207D012811D119
:1024A000207B38B9A069401E4FF4006141EA4030FA
:1024B000054307E0A06A40F02000A062E06A40F017
:1024C0000100E0622068406820F4694028432168E8
:1024D000486020688068214908403043216888604E
:1024E000A068B0F5807F02D0A068012802D14FF427
:1024F000807000E00020B0F5807F03D1208A401E6C
:102500004FEA00582068C06A20F4700040EA0800D2
:102510002168C8622068806811490840B04208D12B
:102520000020E062A06A20F0020040F00100A062FA
:1025300011E0A06A20F0020040F01000A062E06A02
:1025400040F00100E062012705E0FFE7A06A40F0EB
:102550001000A062012738466BE70000FDF7E1FF9D
:10256000FE0E1FFF10B586B00446002002900390B7
:10257000049005902249206888423ED100BF21483E
:10258000806940F400701F4988610846806900F442
:102590000070019000BF00BF00BF0846806940F096
:1025A000080088610846806900F00800019000BFBB
:1025B00000BF022002900320039002A9124800F0FD
:1025C00071F8124812490860002048600021104844
:1025D00081608021C1604900016189004161202141
:1025E0008161C901C16100F015F808B1FFF7A2FAD5
:1025F00000BF07482062446200BF06B010BD000063
:102600000024014000100240000C0140080002407C
:10261000700100200146002209B901207047164BC5
:102620000868C01A1423B0FBF3F080000864124855
:102630000838C863022081F821000868026843F660
:10264000F0708243D1E901031843CB6818430B694A
:1026500018434B6918438B691843CB6918430243ED
:102660000868026000208863012081F821000020B2
:1026700081F8200000BFD1E70800024070B5044691
:1026800000F0B0F906462546681C10B104480078F1
:10269000054400BF00F0A6F9801BA842FAD370BD24
:1026A000080000202DE9F8470346002294466EE119
:1026B0004FF0010808FA02F4D1F8008008EA04009B
:1026C000A0427DD1DFF8DCA2D1F80480A8EB0A0992
:1026D000D0453AD014DCB8F1030F50D009DCB8F182
:1026E000000F31D0B8F1010F1CD0B8F1020F49D161
:1026F00020E0B8F1110F18D0B8F1120F42D11EE04E
:10270000B9F5881F25D006DCB9F5803F20D0B9F592
:10271000801F37D11AE0B9F5001F18D0B9F5041F92
:1027200030D117E0D1F80CC02DE0D1F80C8008F1C1
:10273000040C28E0D1F80C8008F1080C23E0D1F853
:102740000C8008F10C0C1EE000BF00BF00BF00BFF2
:1027500000BF00BFD1F80880B8F1000F02D14FF0E0
:10276000040C0BE0D1F80880B8F1010F03D14FF051
:10277000080C1C6102E04FF0080C5C6103E04FF0B4
:10278000000C00E000BF00BFFF2801D8984601E020
:1027900003F104084646FF2802D84FEA820803E006
:1027A000A2F108084FEA88084746D6F800804FF0A3
:1027B0000F0909FA07F928EA09080CFA07F900E0F5
:1027C00088E048EA0908C6F80080D1F8048008F0DB
:1027D0008058B8F1805F7DD100BFDFF8CC81D8F898
:1027E000188048F00108DFF8C091C9F81880C84681
:1027F000D8F8188008F00108CDF8008000BF00BFAD
:102800004FEAB9384FEA920958F829504FEA8278CE
:102810004FEA18794FF00F0808FA09F825EA080579
:10282000DFF88881434502D14FF0000816E0DFF859
:102830008081434502D14FF001080FE0DFF8748139
:10284000434502D14FF0020808E0DFF86C814345B0
:1028500002D14FF0030801E04FF004084FEA8279FB
:102860004FEA197908FA09F848EA0505DFF84C81BA
:102870004FEA920948F82950D1F8048008F48018EA
:10288000B8F5801F0AD1DFF83881D8F8008048EA0F
:102890000008DFF82C91C9F8008009E0DFF82081FA
:1028A000D8F8008028EA0008DFF81491C9F8008001
:1028B000D1F8048008F40018B8F5001F10D1DFF833
:1028C000008108F10408D8F8008048EA0008DFF821
:1028D000F09000E05AE009F10409C9F800800DE029
:1028E000DFF8DC8008F10408D8F8008028EA000846
:1028F000DFF8CC9009F10409C9F80080D1F8048010
:1029000008F40038B8F5003F0ED1DFF8B480A8F124
:102910000408D8F8008048EA0008DFF8A490A9F17C
:102920000409C9F800800DE0DFF89480A8F10408DC
:10293000D8F8008028EA0008DFF88490A9F104099B
:10294000C9F80080D1F8048008F48038B8F5803FD9
:102950000ED1DFF86C80A8F10808D8F8008048EAAA
:102960000008DFF85C90A9F10809C9F800800DE0C3
:10297000DFF84C80A8F10808D8F8008028EA0008A1
:10298000DFF83C90A9F10809C9F80080521CD1F881
:10299000008028FA02F8B8F1000F7FF489AEBDE894
:1029A000F8870000000011100010024000080140EC
:1029B000000C0140001001400014014008000140DB
:1029C0000804014010B5C26821EA020302EA0104CA
:1029D00043EA0443036110BD0AB1016101E00B0445
:1029E0000361704701480068704700000000002044
:1029F00070B504460CB9012070BD94F83D0028B9AB
:102A0000002084F83C00204600F046FB242084F897
:102A10003D002068006820F00100216808602068FF
:102A2000006840F40040216808602068006820F4D5
:102A300000402168086000F08FFD05465C49606831
:102A4000884206D85B48854201D2012007E0002079
:102A500005E05948854201D2012000E0002001280C
:102A600000D1C9E75548B5FBF0F62068406820F072
:102A70003F003043216848604D496068884201D872
:102A8000701C07E04FF4967070434FF47A71B0FBFE
:102A9000F1F0401C2168096A21F03F0108432168D8
:102AA000086243496068884214D8681E616849001A
:102AB000B0FBF1F0401CC0F30B00042801D204204D
:102AC0003DE0681E61684900B0FBF1F0401CC0F3B6
:102AD0000B0034E0A06838B9681E616801EB410161
:102AE000B0FBF1F0401C0AE0681E616801EBC10216
:102AF00002EB0111B0FBF1F0401C40F48040C0F348
:102B00000B0008B901201AE0A06848B9681E616886
:102B100001EB4101B0FBF1F0401CC0F30B000CE0F5
:102B2000681E616801EBC10202EB0111B0FBF1F01C
:102B3000401CC0F30B0040F4804040F4004021688A
:102B4000C9694CF6FF72914308432168C861D4E912
:102B5000070108432168096821F0C0010843216882
:102B60000860D4E9031008432168896848F2FF32FD
:102B70009143084321688860D4E90501084321682E
:102B8000C96821F0FF0108432168C8602068006817
:102B900040F001002168086000202064202084F8B3
:102BA0003D000020206384F83E0000BF24E70000C1
:102BB000A086010080841E0000093D0040420F00F5
:102BC0002DE9FE4F04460F4690469946DDE90CABD1
:102BD0000E9E00200290FFF705FF054694F83D0089
:102BE000202872D119230122CE492046009501F0F8
:102BF000AAFE10B10220BDE8FE8F00BF94F83C0091
:102C0000012801D10220F6E7012084F83C0000BF32
:102C10002068006800F0010028B92068006840F0D2
:102C20000100216808602068006820F400602168C5
:102C30000860222084F83D00402084F83E000020F7
:102C40002064C4F824A0A4F82AB0608D2085B6487A
:102C5000E0624B46424639462046CDE9006501F028
:102C60001FFD08B10120C6E7208D88B900BF0020F4
:102C7000019020684069019020688069019000BF40
:102C800000BF2068006840F40070216808604BE0D5
:102C9000208D01281AD12068006820F48060216806
:102CA000086072B600BF0020019020684069019062
:102CB00020688069019000BF00BF2068006840F470
:102CC00000702168086062B62EE029E1208D02289C
:102CD00019D12068006840F400602168086072B66D
:102CE00000BF002001902068406901902068806941
:102CF000019000BF00BF2068006820F48060216858
:102D0000086062B610E02068006840F480602168C6
:102D1000086000BF00200190206840690190206891
:102D20008069019000BF00BFEBE0208D03287DD8B3
:102D3000208D012815D12A463146204601F0DFFEBC
:102D400008B1012057E720680069616A0870606A6D
:102D5000401C6062208D401E2085608D401E608575
:102D6000CFE0208D02282CD1334600226F49204627
:102D7000009501F0E8FD08B101203CE772B620683B
:102D8000006840F400702168086020680069616A8A
:102D90000870606A401C6062208D401E2085608D36
:102DA000401E608562B620680069616A0870606ACA
:102DB000401C6062208D401E2085608D401E608515
:102DC0009FE03346002259492046009501F0BBFDA3
:102DD00008B101200FE72068006820F480602168B6
:102DE000086072B620680069616A0870606A401CF9
:102DF0006062208D401E2085608D401E60854C489D
:102E000000681921B0FBF1F04FF47A71B0FBF1F0DA
:102E1000C0EBC00000EB8000029000BF0298401E93
:102E200002900298A8B90020206300E039E0202039
:102E300084F83D00002084F83E00206C40F0200023
:102E4000206462B600BF002084F83C0000BF01206F
:102E5000D1E620684069C0F380000028DED02068F9
:102E6000006840F400702168086020680069616AA9
:102E70000870606A401C6062208D401E2085608D55
:102E8000401E608562B620680069616A0870606AE9
:102E9000401C6062208D401E2085608D401E608534
:102EA0002FE02A463146204601F029FE08B10120D4
:102EB000A1E620680069616A0870606A401C60626F
:102EC000208D401E2085608D401E608520684069F1
:102ED000C0F38000A8B1208D032805D120680068C8
:102EE00020F480602168086020680069616A0870C9
:102EF000606A401C6062208D401E2085608D401EEF
:102F00006085208D00287FF410AF202084F83D00DC
:102F1000002084F83E0000BF84F83C0000BF6AE651
:102F2000022068E6020010000000FFFF040001001C
:102F30000C0000202DE9FC5F04460F4690469946A0
:102F4000DDE90CAB0E9EFFF74DFD054694F83D0004
:102F500020287DD1192301224D492046009501F0FA
:102F6000F2FC10B10220BDE8FC9F00BF94F83C00C9
:102F7000012801D10220F6E7012084F83C0000BFBF
:102F80002068006800F0010028B92068006840F05F
:102F90000100216808602068006820F40060216852
:102FA0000860212084F83D00402084F83E00002085
:102FB0002064C4F824A0A4F82AB0608D2085354888
:102FC000E0624B46424639462046CDE9006501F0B5
:102FD00017FC08B10120C6E731E02A4631462046F9
:102FE00001F0D2FD50B1206C042805D120680068A2
:102FF00040F40070216808600120B4E7606A00783E
:1030000021680861606A401C6062208D401E208536
:10301000608D401E608520684069C0F3800070B1FB
:10302000208D60B1606A007821680861606A401C88
:103030006062208D401E2085608D401E6085208D41
:103040000028CAD12A463146204601F049FC00E05A
:103050001CE050B1206C042805D12068006840F4C1
:1030600000702168086001207DE72068006840F456
:10307000007021680860202084F83D00002084F85A
:103080003E0000BF84F83C0000BF6CE702206AE706
:10309000020010000000FFFF10B586B004460020BB
:1030A000029003900490059015492068884225D12C
:1030B00000BF1448806940F0080012498861084642
:1030C000806900F00800019000BF00BFC02002909E
:1030D000122003900320059002A90B48FFF7E2FAA3
:1030E00000BF0848C06940F400100649C86108469E
:1030F000C06900F40010019000BF00BF06B010BD11
:103100000054004000100240000C014003480068D9
:10311000034909780844014908607047000000200D
:103120000800002010B50848006840F0100006496B
:103130000860032000F098F80F2000F007F800F076
:103140002BF8002010BD00000020024070B504469E
:103150000E4800784FF47A71B1FBF0F00C49096821
:10316000B1FBF0F5284600F047FE08B1012070BD24
:10317000102C07D200222146501E00F037F80548D7
:10318000046001E00120F2E70020F0E708000020E1
:103190000C0000200400002008B500BF1148806921
:1031A00040F001000F4988610846806900F0010085
:1031B000009000BF00BF00BF0846C06940F08050CB
:1031C000C8610846C06900F08050009000BF00BF91
:1031D00000BF0549486820F0E06040F0007048609A
:1031E00000BF08BD00100240000001402DE9F05F63
:1031F00080460D461646002702F04CFE074639462B
:103200002A46334601F00700C0F1070ABAF1040F5D
:1032100002D94FF0040A01E0C0F1070AD14600F1DB
:10322000040ABAF1070F02D24FF0000A01E0A0F140
:10323000030AD4464FF0010A0AFA09FAAAF1010A70
:103240000AEA020A0AFA0CFA4FF0010B0BFA0CFB1D
:10325000ABF1010B0BEA030B4AEA0B042146404693
:1032600002F020FEBDE8F09F00BF00F00702064B11
:1032700019684FF6FF031940044B0B4343EA022140
:10328000014B196000BF70470CED00E00000FA052B
:10329000F8B5044600260025207800F0010000283B
:1032A0006BD000274348C06900F0805070B900BF60
:1032B0004048C06940F080503E49C8610846C06936
:1032C00000F08050009000BF00BF01273A4800681E
:1032D00000F48070B0B93848006840F48070364916
:1032E0000860FFF77FFB064606E0FFF77BFB801BCD
:1032F000642801D90320F8BD2F48006800F48070CD
:103300000028F2D02B48006A00F440752DB3A08845
:1033100000F44070A84220D02648006A20F440758E
:10332000012026490860002008602248056205F057
:10333000010090B1FFF756FB064608E0FFF752FB8D
:10334000801B41F28831884201D90320D3E7194814
:10335000006A00F002000028F0D01648006A20F44D
:1033600040706168084313490862012F04D1084680
:10337000C06920F08050C86100BF207800F00200D2
:10338000022807D10B48406820F44040A168084358
:1033900008494860207800F01000102807D105483F
:1033A000406820F48000E16808430249486000203A
:1033B000A1E70000001002400070004040044242BB
:1033C00070B504460D460CB9012070BD5A4800681E
:1033D00000F00700A8420ED25748006820F007000E
:1033E0002843554908600846006800F00700A842D5
:1033F00001D00120E9E7207800F0020002281DD169
:10340000207800F00400042805D14C48406840F4BE
:10341000E0604A494860207800F00800082805D19B
:103420004648406840F4605044494860434840681A
:1034300020F0F000A168084340494860207800F07F
:10344000010078B36068012806D13C48006800F4A8
:10345000003090B90120B8E76068022806D13748EB
:10346000006800F0007040B90120AEE73348006802
:1034700000F0020008B90120A7E73048406820F0BA
:103480000300616808432D494860FFF7ABFA064620
:1034900009E0FFF7A7FA801B41F28831884202D980
:1034A000032092E707E02548406800F00C006168BF
:1034B000B0EB810FEDD12048006800F00700A84272
:1034C0000ED91D48006820F0070028431A490860FB
:1034D0000846006800F00700A84201D0012074E708
:1034E000207800F00400042807D11448406820F434
:1034F000E060E168084311494860207800F0080066
:10350000082808D10D48406820F46050216940EA3D
:10351000C1000A49486000F03FF808494968C1F312
:103520000311074A515CC840064908600648006814
:10353000FFF70CFE002048E7002002400010024088
:10354000FA7A00080C0000200400002001480068FE
:10355000704700000C00002000B5FFF7F7FF04499A
:103560004968C1F30221034A515CC84000BD000014
:10357000001002400A7B000800B5FFF7E7FF04498E
:103580004968C1F3C221034A515CC84000BD000034
:10359000001002400A7B000870B5002100220024C0
:1035A00000230020134D696801F00C05F5B1042DCE
:1035B00002D0082D19D101E00F4819E00F4DC1F3D9
:1035C0008346AB5D01F4803555B10A4D6D68C5F396
:1035D00040450B4E725D084D5D43B5FBF2F402E0D1
:1035E000084D03FB05F4204602E000BF024800BF7F
:1035F00000BF70BD0010024000127A00E87A000897
:10360000F87A000800093D00F8B504460CB901201D
:10361000F8BD207800F00100002878D0F848406814
:1036200000F00C0004280CD0F548406800F00C00B5
:10363000082811D1F248406800F48030B0F5803F8E
:103640000AD1EF48006800F4003000285FD06068BD
:1036500000285CD10120DBE700BF6068B0F5803F47
:1036600006D1E748006840F48030E549086028E06A
:10367000606858B9E248006820F48030E04908608A
:103680000846006820F4802008601AE06068B0F501
:10369000A02F0BD1DA48006840F48020D849086098
:1036A0000846006840F4803008600AE0D4480068AA
:1036B00020F48030D24908600846006820F4802059
:1036C000086000BF606888B1FFF78CF9054606E026
:1036D000FFF788F9401B642801D9032098E7C84800
:1036E000006800F400300028F2D010E0FFF77AF90B
:1036F000054606E0FFF776F9401B642801D9032050
:1037000086E7BF48006800F400300028F2D1207836
:1037100000F00200022857D1B948406800F00C00C0
:1037200050B1B748406800F00C00082818D1B448E0
:10373000406800F4803098B9B148006800F0020099
:1037400020B12069012801D0012061E7AC48006860
:1037500020F0F800616940EAC100A949086033E03F
:103760002069E8B10120A7490860FFF73BF9054649
:1037700006E0FFF737F9401B022801D9032047E78D
:103780009F48006800F002000028F2D09C480068C2
:1037900020F0F800616940EAC1009949086013E02F
:1037A000002098490860FFF71DF9054606E0FFF77D
:1037B00019F9401B022801D9032029E79048006825
:1037C00000F002000028F2D1207800F0080008285C
:1037D0002DD1A069B8B101208B490860FFF702F92B
:1037E000054606E0FFF7FEF8401B022801D903203A
:1037F0000EE78348406A00F002000028F2D0012062
:1038000001F072FF13E000207F490860FFF7EAF83B
:10381000054606E0FFF7E6F8401B022801D9032021
:10382000F6E67748406A00F002000028F2D12078DE
:1038300000F00400042873D100277148C06900F02B
:10384000805070B900BF6E48C06940F080506C492C
:10385000C8610846C06900F08050009000BF00BFFA
:1038600001276A48006800F48070B0B967480068B2
:1038700040F4807065490860FFF7B4F8054606E03B
:10388000FFF7B0F8401B642801D90320C0E65F4869
:10389000006800F480700028F2D000BFE0680128C2
:1038A00006D15748006A40F001005549086227E0F8
:1038B000E06858B95248006A20F001005049086297
:1038C0000846006A20F00400086219E0E068052854
:1038D0000BD14B48006A40F0040049490862084691
:1038E000006A40F0010008620AE04548006A20F0E2
:1038F0000100434908620846006A20F0040008629B
:1039000000BFE068A0B1FFF76DF8054609E0FFF7DA
:1039100069F8401B41F28831884202D9032077E6DA
:1039200022E03748006A00F002000028EFD012E0E1
:10393000FFF758F8054608E0FFF754F8401B41F23E
:103940008831884201D9032062E62D48006A00F0E0
:1039500002000028F0D1012F05D12948C06920F0CC
:1039600080502749C86100BFE069C8B32448406857
:1039700000F00C00082860D0E069022848D100203F
:1039800020490866FFF72EF8054606E0FFF72AF8FB
:10399000401B022801D903203AE61948006800F0CC
:1039A00000700028F2D1206AB0F5803F07D114489A
:1039B000406820F40030A168084311494860D4E908
:1039C000080108430E49496821F4741108430C4961
:1039D000486001200B490866FFF704F8054607E038
:1039E0003DE0FEF7FFFF401B022801D903200FE650
:1039F0000348006800F000700028F2D02FE00000BB
:103A00000010024000004242800442420070004028
:103A1000002014490866FEF7E5FF054606E0FEF7BC
:103A2000E1FF401B022801D90320F1E50E480068A0
:103A300000F000700028F2D111E0E069012800D107
:103A4000E6E50948466806F48031206A814204D1DF
:103A500006F47011606A814201D00120D8E500208F
:103A6000D6E50000000042420010024010B50446B6
:103A70000CB9012010BD606A38B96068B0F5827F6A
:103A800000D105E00021E16102E0002121616161D6
:103A90000021A16294F8510028B9002084F8500058
:103AA000204600F043F8022084F8510020680068A6
:103AB00020F0400021680860A08800F4827021890D
:103AC00001F404410843A18901F400610843217C09
:103AD00001F002010843217D01F001010843218B1F
:103AE00001F400710843217F01F0380108432021CF
:103AF000095D01F080010843218D01F40051084364
:103B0000216808600421A06901EA1040216848602A
:103B10002068C06920F400602168C86100206065E9
:103B2000012084F851000020A4E7000010B586B001
:103B300004460020029003900490059019492068E3
:103B400088422DD100BF1848806940F48050164942
:103B500088610846806900F48050019000BF00BF72
:103B600000BF0846806940F004008861084680690B
:103B700000F00400019000BF00BFA02002900220CE
:103B800003900320059002A90848FEF78BFD402012
:103B9000029000200390049002A90448FEF782FDE1
:103BA00006B010BD00300140001002400008014086
:103BB0002DE9FE4F04460F4690461D460C9E0120FF
:103BC0000190FEF70FFF814694F851B060680290B3
:103BD000AA46BBF1010F0BD00298B0F5827F04D149
:103BE000A06810B9BBF1040F02D00220BDE8FE8F1F
:103BF0001FB1B8F1000F00D00DB90120F6E700BFEA
:103C000094F85000012801D10220EFE7012084F848
:103C1000500000BF94F85100042802D0052084F819
:103C2000510000206065C4F83880E587A5872763C8
:103C3000E586A586206460642068006800F0400086
:103C4000402805D02068006840F0400021680860E6
:103C5000E068B0F5006F52D1606810B1BAF1010FA1
:103C600009D1206B00882168C860206B801C20630C
:103C7000E08E401EE0863BE02068806800F0020095
:103C8000022810D1E08E70B1019801280BD1206B71
:103C900000882168C860206B801C2063E08E401E75
:103CA000E086002001902068806800F0010068B183
:103CB000E08F58B12068C068A16B0880A06B801CA1
:103CC000A063E08F401EE08701200190FEF78AFE8E
:103CD000A0EB0900B0420BD3701C48B1012084F85E
:103CE000510000BF002084F8500000BF03207DE792
:103CF000E08E0028C0D1E08F0028BDD152E060687E
:103D000010B1BAF1010F09D1206B00782168087356
:103D1000206B401C2063E08E401EE0863CE0206863
:103D2000806800F00200022810D1E08E70B1019886
:103D300001280BD1206B007821680873206B401C90
:103D40002063E08E401EE08600200190206880689D
:103D500000F0010068B1E08F58B12068C068A16B25
:103D60000870A06B401CA063E08F401EE08701201C
:103D70000190FEF737FEA0EB0900B04201D3701CA2
:103D800000B94EB9012084F8510000BF002084F82A
:103D9000500000BF032029E7E08E0028BFD1E08F4C
:103DA0000028BCD14A463146204601F0B1FC40B162
:103DB0002020606500BF002084F8500000BF012073
:103DC00014E7A06850B900BF002000902068C068C8
:103DD000009020688068009000BF00BF012084F838
:103DE000510000BF002084F8500000BF606D08B192
:103DF0000120FBE60020F9E670B504462546681E62
:103E0000B0F1807F01D301200FE0681E4FF0E02168
:103E100048610F214FF0FF3002F044F800204FF0CE
:103E2000E021886107200861002070BD10B50346BD
:103E3000002200BF93F83C00012801D1022010BDF0
:103E4000012083F83C0000BF22F0FF00CC6840EA6C
:103E5000040222F440708C6840EA040222F480607C
:103E60004C6840EA040222F400600C6840EA040254
:103E700022F480500C6940EA040222F400504C699C
:103E800040EA040222F48040CC6940EA0402186847
:103E9000426400BF002083F83C0000BF00BFCEE7B3
:103EA00030B502460B4600BF92F83C00012801D114
:103EB000022030BD012082F83C0000BF022082F8C1
:103EC0003D00106844681068816824F07004186828
:103ED000044310684460104D1068A8420BD010686D
:103EE000B0F1804F07D00D4D1068A84203D00C4DA3
:103EF0001068A84205D121F080015868014310687C
:103F00008160012082F83D0000BF002082F83C0063
:103F100000BF00BFCDE70000002C014000040040BE
:103F20000008004010B504460CB9012010BD94F8FB
:103F30003D0028B9002084F83C00204600F026F817
:103F4000022084F83D00211D206801F023FD01209E
:103F500084F8460000BF84F83E0001213F2001554F
:103F6000402001554120015500BF00BF012084F8C9
:103F7000420043200155442001554520015500BF12
:103F8000012084F83D000020D0E7000008B5094A70
:103F9000016891420DD100BF0749896941F4006170
:103FA000054A91611146896901F40061009100BFE1
:103FB00000BF08BD002C0140001002402DE9F04177
:103FC00004460D46002700BF94F83C00012802D1AA
:103FD0000220BDE8F081012084F83C0000BF0220EF
:103FE00084F83D002068866826F0770626F47F4630
:103FF000206886602868502833D00CDC202850D0F8
:1040000004DC00284BD0102851D149E0302849D099
:1040100040284CD139E060282DD0702807D0B0F569
:10402000805F03D0B0F5005F41D10DE041E0D5E9FC
:1040300002136A68206801F000FD2068866846F077
:1040400077062068866034E0D5E902136A68206844
:1040500001F0F3FC2068806840F4804021688860AB
:1040600027E0EA686968206801F0B8FD50212068FF
:1040700001F0EEFC1DE0EA686968206801F0C1FD0E
:104080006021206801F0E4FC13E0EA6869682068B8
:1040900001F0A4FD4021206801F0DAFC09E000BF36
:1040A00000BF00BF2968206801F0D2FC01E00127B1
:1040B00000BF00BF012084F83D0000BF002084F84D
:1040C0003C0000BF384684E710B586B004460020A7
:1040D00002900390049005903C492068884217D1D3
:1040E00000BF3B48806940F00400394988610846B8
:1040F000806900F00400019000BF00BF0815029025
:1041000002200390059002A93248FEF7CBFA5BE04B
:104110002068B0F1804F16D100BF2D48806940F073
:1041200004002B4988610846806900F00400019072
:1041300000BF00BF022002900390059002A925480D
:10414000FEF7B0FA40E024492068884221D100BF40
:104150001F48806940F008001D4988610846806951
:1041600000F00800019000BF00BF10200290022064
:104170000390059002A91948FEF794FA00BF184968
:10418000486820F4406040F0E06040F4006048601F
:104190001AE014492068884216D100BF0C48806993
:1041A00040F008000A4988610846806900F008006C
:1041B000019000BF00BF48150290022003900590B7
:1041C00002A90648FEF76EFA06B010BD002C0140A9
:1041D000001002400008014000040040000C0140B3
:1041E00000000140000800402DE9F04104460D4662
:1041F0001646002700BF94F83C00012802D1022097
:10420000BDE8F081012084F83C0000BF36B1042EE7
:104210001BD0082E31D00C2E5ED145E029462068F7
:1042200001F020FC2068806940F008002168886166
:104230002068806920F00400216888612068806916
:10424000296908432168886148E02946206801F00F
:1042500039FC2068806940F400602168886120682A
:10426000806920F4806021688861206880692969FC
:1042700040EA01202168886130E02946206801F089
:1042800055FC2068C06940F008002168C8612068BA
:10429000C06920F004002168C8612068C0692969EC
:1042A00008432168C86119E02946206801F072FCC2
:1042B0002068C06940F400602168C8612068C06956
:1042C00020F480602168C8612068C069296940EADB
:1042D00001202168C86101E0012700BF00BF00BFC5
:1042E000002084F83C0000BF384689E710B504463A
:1042F0000CB9012010BD94F83D0028B9002084F8C5
:104300003C00204600F026F8022084F83D00211DE4
:10431000206801F03FFB012084F8460000BF84F8CC
:104320003E0001213F20015540200155412001550B
:1043300000BF00BF012084F8420043200155442003
:1043400001554520015500BF012084F83D000020A3
:10435000D0E7000008B50168B1F1804F0DD100BF72
:104360001849C96941F00101164AD1611146C9696C
:1043700001F00101009100BF23E0134A016891425E
:104380000DD100BF0F49C96941F002010D4AD16149
:104390001146C96901F00201009100BF11E00B4A0A
:1043A000016891420DD100BF0649C96941F004017D
:1043B000044AD1611146C96901F00401009100BFAE
:1043C00000BF08BD0010024000040040000800408B
:1043D00070B504460D4615B994F83E000BE0042D67
:1043E00002D13F20005D06E0082D02D14020005D93
:1043F00001E04120005D012801D0012070BD1DB900
:10440000022084F83E000EE0042D03D102213F205B
:10441000015508E0082D03D102214020015502E09A
:1044200002214120015501222946206801F0F4FAB9
:1044300019492068884201D1012000E0002028B1FC
:104440002068406C40F400402168486412492068AC
:1044500088420BD02068B0F1804F07D00F49206808
:10446000884203D00E49206888420CD120688068B9
:1044700000F00706062E0CD02068006840F001000E
:104480002168086005E02068006840F001002168AC
:1044900008600020B2E70000002C0140000400404A
:1044A0000008004010B504460CB9012010BDA069F9
:1044B00000B100E000BF94F8410028B9002084F862
:1044C0004000204600F02AF8242084F841002068AB
:1044D000C06820F400502168C860204601F0DCFB71
:1044E0002068006920F490402168086120684069D4
:1044F00020F02A00216848612068C06840F400501C
:104500002168C86000206064202084F8410084F89D
:1045100042000020606300BFC8E7000010B586B00D
:1045200004460020029003900490059019492068E9
:1045300088422DD100BF1848C06940F400301649A8
:10454000C8610846C06900F40030019000BF00BF98
:1045500000BF0846806940F0040088610846806911
:1045600000F00400019000BF00BF04200290022070
:1045700003900320059002A90848FEF793F808204D
:10458000029000200390049002A90448FEF78AF8E4
:1045900006B010BD00440040001002400008014079
:1045A0002DE9F84F04460E46174699464FF0000A8B
:1045B00094F84100202850D106B117B90120BDE878
:1045C000F88F00206064212084F84100FEF70AFA89
:1045D0008246A784E784A068B0F5805F04D1206993
:1045E00010B90025B04602E035464FF000081EE045
:1045F0005346002280212046CDF8009001F0CAFBEE
:1046000020B1202084F841000320D8E745B9B8F84C
:104610000000C0F308002168486008F1020803E0C8
:104620002878216848606D1CE08C401EE084E08C96
:104630000028DDD15346002240212046CDF80090CD
:1046400001F0A8FB20B1202084F841000320B6E748
:10465000202084F841000020B1E70220AFE700BF2E
:10466000FEE7014608684069C0F38020B0B16FF4EE
:1046700080600A68506100200863202081F83D00B6
:10468000002081F83E00086C40F00400086400BF80
:10469000002081F83C0000BF012070470020FCE7AB
:1046A0002DE9F84304460F4615469946DDE908868C
:1046B0002068006840F48060216808602068006815
:1046C00040F4807021680860434600224FF00111D9
:1046D0002046009600F037F960B12068006800F4C9
:1046E0008070B0F5807F02D14FF400702064032009
:1046F000BDE8F88307F0FE002168086133464246B2
:104700003E49204600F07EF908B10120F0E700BFE5
:104710000020009020684069009020688069009027
:1047200000BF00BF32464146204600F02DFA50B18E
:10473000206C042805D12068006840F400702168CE
:1047400008600120D4E7B9F1010F03D1E8B2216874
:10475000086117E0C5F30720216808613246414629
:10476000204600F011FA50B1206C042805D12068D1
:10477000006840F40070216808600120B8E7E8B2E2
:104780002168086132464146204600F0FDF950B1EB
:10479000206C042805D12068006840F4007021686E
:1047A00008600120A4E72068006840F48070216858
:1047B0000860434600224FF001112046009600F0A9
:1047C000C2F858B12068006800F48070B0F5807FAE
:1047D00002D14FF400702064032089E7F8B240F062
:1047E000010021680861334642460449204600F032
:1047F00009F908B101207BE7002079E702000100F8
:104800002DE9F8430446884615469946DDE90867D0
:104810002068006840F480702168086033460022F8
:104820004FF001112046009700F08DF860B120682C
:10483000006800F48070B0F5807F02D14FF4007002
:1048400020640320BDE8F88308F0FE0021680861B9
:104850003B4632462149204600F0D4F808B10120F9
:10486000F0E700BF002000902068406900902068B9
:104870008069009000BF00BF3A463146204600F0F4
:1048800083F950B1206C042805D12068006840F4F9
:104890000070216808600120D4E7B9F1010F03D14D
:1048A000E8B22168086117E0C5F3072021680861B4
:1048B0003A463146204600F067F950B1206C042892
:1048C00005D12068006840F400702168086001206C
:1048D000B8E7E8B2216808610020B3E702000100F0
:1048E00070B504460D46164625E02046FFF7B9FE92
:1048F00008B1012070BD681CE8B1FEF773F8801B99
:10490000A84200D8BDB920684069C0F3800090B9C2
:1049100000202063202084F83D00002084F83E0021
:10492000206C40F02000206400BF002084F83C0090
:1049300000BF0120DEE720684069C0F38000002846
:10494000D3D00020D6E72DE9F04104460D461746A6
:104950001E46DDF8188038E0701CA8B3FEF742F858
:10496000A0EB0800B04200D876BBC5F30740012891
:104970000AD120684069A9B20840A9B2884201D191
:1049800001200BE0002009E020688069A9B20840FE
:10499000A9B2884201D1012000E00020B84214D120
:1049A00000202063202084F83D00002084F83E0091
:1049B000206C40F02000206400BF002084F83C0000
:1049C00000BF0120BDE8F081FFE7C5F307400128E3
:1049D0000AD120684069A9B20840A9B2884201D131
:1049E00001200BE0002009E020688069A9B208409E
:1049F000A9B2884201D1012000E00020B842ABD02A
:104A00000020DFE72DE9F04104460D4616461F461B
:104A100058E020684069C0F38020E8B12068006851
:104A200040F40070216808606FF48060216848617C
:104A300000202063202084F83D00002084F83E0000
:104A4000206C40F00400206400BF002084F83C008B
:104A500000BF0120BDE8F081701C90B3FDF7C2FFDC
:104A6000C01BB04200D866BBC5F3074001280AD17D
:104A700020684069A9B20840A9B2884201D101204A
:104A80000BE0002009E020688069A9B20840A9B2C3
:104A9000884201D1012000E0002090B9002020636D
:104AA000202084F83D00002084F83E00206C40F077
:104AB0002000206400BF002084F83C0000BF0120DB
:104AC000C8E7FFE7C5F3074001280AD1206840691D
:104AD000A9B20840A9B2884201D101200BE0002010
:104AE00009E020688069A9B20840A9B2884201D1D2
:104AF000012000E0002000288BD00020AAE770B53C
:104B000004460D46164637E020684069C0F30010A1
:104B1000A0B16FF0100021684861002020632020C0
:104B200084F83D00002084F83E00206C206400BF23
:104B3000002084F83C0000BF012070BDFDF752FF4B
:104B4000801BA84200D8BDB920684069C0F380101E
:104B500090B900202063202084F83D00002084F8D4
:104B60003E00206C40F02000206400BF002084F84C
:104B70003C0000BF0120E0E720684069C0F38010DE
:104B80000028C1D00020D8E770B504460D4616466F
:104B900025E02046FFF765FD08B1012070BD681CC7
:104BA000E8B1FDF71FFF801BA84200D8BDB92068FF
:104BB0004069C0F3C01090B900202063202084F821
:104BC0003D00002084F83E00206C40F0200020646E
:104BD00000BF002084F83C0000BF0120DEE7206811
:104BE0004069C0F3C0100028D3D00020D6E70000F1
:104BF00010B5002204210648FDF7EEFE642002F005
:104C000053FC012204210248FDF7E6FE10BD00001E
:104C1000000C014010B5FFF7EBFF10BD70B5044666
:104C20000D46012229462046FDF7D6FE70BD70B51F
:104C300004460D46002229462046FDF7CDFE70BDF4
:104C400070B504460D4629462046FDF7BBFE70BDF3
:104C500038B580216B2000F013F96420FDF70EFDBC
:104C600000216B2000F00CF94FF4FA7000F08AF983
:104C700018211B2000F004F900211C2000F000F98D
:104C80000021232000F0FCF80021382000F0F8F883
:104C900000216A2000F0F4F86946752000F0AAF8B7
:104CA0009DF8000068281CD000BF5C211DA0FBF708
:104CB000B9FA28B15C211BA0FBF7B4FA401C00E054
:104CC00018A00446202221461CA001F0ABF89DF854
:104CD000001020A001F0A6F827A001F0A3F800BF63
:104CE00038BD09216B2000F0CBF800BF5C210DA07E
:104CF000FBF798FA28B15C210AA0FBF793FA401C55
:104D000000E008A00446262221461DA001F08AF8F2
:104D100021A001F087F818A001F084F800BF00BFBF
:104D2000DEE700002E2E5C496E745C496E745F4DA8
:104D30005055363035302E63000000001B5B303B91
:104D400033316D0D0A5B4552524F522025733A257F
:104D5000645D2000756E6D617463686564204D50FC
:104D60005536303530206465766963652049443AAC
:104D700020307825303258001B5B306D0D0A000062
:104D80001B5B313B33366D0D0A5B44454255472072
:104D900025733A25645D2000496E745F4D50553689
:104DA0003035305F496E697420646F6E65000000B5
:104DB0007CB506460C461546062269463B2000F0A7
:104DC0002BF89DF801009DF8001040EA012000B288
:104DD00030809DF803009DF8021040EA012000B2E7
:104DE00020809DF805009DF8041040EA012000B2E3
:104DF00028807CBD3EB504460D464FF0FF300121B2
:104E00000B462246CDE900510290D0210148FDF722
:104E1000D7FE3EBDB4010020FEB504460D46164641
:104E20004FF0FF3001232246D021CDE900560290F9
:104E30000148FDF7C5FEFEBDB40100207CB5064665
:104E40000C461546062269464320FFF7E5FF9DF80C
:104E500001009DF8001040EA012000B230809DF86A
:104E600003009DF8021040EA012000B220809DF866
:104E700005009DF8041040EA012000B228807CBDA6
:104E800033B583B004464FF0FF30012104AA0B462E
:104E9000CDE9002102902246D0211148FEF74AF8C0
:104EA00000BF5C210FA0FBF7BDF928B15C210DA06C
:104EB000FBF7B8F9401C00E00AA005464E2229463F
:104EC0000EA000F0AFFF9DF81020214611A000F0C9
:104ED000A9FF1BA000F0A6FF00BF05B030BD000079
:104EE000B40100202E2E5C496E745C496E745F4DD7
:104EF0005055363035302E63000000001B5B313BCF
:104F000033366D0D0A5B44454255472025733A25DB
:104F1000645D2000496E745F4D5055363035305F0A
:104F200053656E644279746520726567203D202563
:104F300023782C2062797465203D20252378000099
:104F40001B5B306D0D0A000070B50546BC2D01DB02
:104F5000012412E0622D01DB02240EE02A2D01DB88
:104F600003240AE0142D01DB042406E00A2D01DBF2
:104F7000052402E0052D00DB062421461A20FFF758
:104F80007FFF70BD70B50446042C01DA042404E0F0
:104F9000B4F57A7F01DD4FF47A744FF47A7090FBA8
:104FA000F4F0401EC5B229461920FFF769FF2646D6
:104FB00004EBD671C1F34F00FFF7C6FF70BD0000D0
:104FC0001CB50020009001901AE005220D49302008
:104FD00000F002F905226946102000F0ADF800202B
:104FE0000BE01DF80010074A125C914200D006E069
:104FF000042800D11CBD411CC8B20528F1DB00BF4C
:10500000E3E70000700000201CB500224FF480711F
:105010002748FDF7E1FC052226492A2000F0DCF8AC
:105020000121212000F0C2F80121222000F0BEF869
:105030002821252000F0BAF81C21312000F0B6F814
:105040000F21262000F0B2F80F21202000F0AEF84A
:10505000FF21272000F0AAF8FF21E22000F0A6F8A7
:10506000012211021248FDF7B7FC002000900190C8
:10507000052269460A2000F05FF800BF5C210EA0FF
:10508000FBF7D0F828B15C210BA0FBF7CBF8401C54
:1050900000E009A00446302221460CA000F0C2FE28
:1050A00010A000F0BFFE16A000F0BCFE00BF1CBDAB
:1050B00000080140750000202E2E5C496E745C498A
:1050C0006E745F5369323452312E63001B5B313B87
:1050D00033366D0D0A5B44454255472025733A250A
:1050E000645D2000496E745F5349323452315F4928
:1050F0006E697452784D6F646520646F6E65000050
:105100001B5B306D0D0A000070B5044600221021B3
:105110000848FDF761FC2046FCF7FCFC0020FCF78A
:10512000F9FC0546012210210248FDF755FC2846EE
:1051300070BD0000000801402DE9F04107460D4612
:105140001646002210210B48FDF746FC3846FCF7B6
:10515000E1FC002405E00020FCF7DCFC2855601C85
:10516000C4B2B442F7DB012210210248FDF734FC3F
:10517000BDE8F0810008014070B504460720FFF744
:10518000C3FF05462946272000F010F805F040002F
:1051900050B11C2221466120FFF7CEFFFF21E22003
:1051A00000F004F8002070BD0120FCE770B5054652
:1051B0000C46002210210748FDF70EFC2846FCF79C
:1051C000A9FC2046FCF7A6FC012210210148FDF7AE
:1051D00003FC70BD000801402DE9F04107460D4673
:1051E0001646002210210B48FDF7F6FB3846FCF767
:1051F00091FC002404E0285DFCF78CFC601CC4B228
:10520000B442F8DB012210210248FDF7E5FBBDE8BE
:10521000F0810000000801400EB5002000900190D0
:10522000029013481349086000211248816001214F
:105230000173002101754FF46021C16100200D4907
:10524000486001210B480161FDF7EAF808B1FCF75D
:1052500071FC092000900120019000200290694615
:105260000448FDF72DF808B1FCF764FC0EBD000002
:10527000002401404001002008B500BF06484069F5
:1052800040F00100044948610846406900F001000F
:10529000009000BF00BF08BD0010024000B585B0FF
:1052A0000020019002900390049000BF354880696F
:1052B00040F02000334988610846806900F02000F2
:1052C000009000BF00BF00BF0846806940F00400A6
:1052D00088610846806900F00400009000BF00BFAC
:1052E00000BF0846806940F0080088610846806970
:1052F00000F00800009000BF00BF012241F610013D
:105300002148FDF769FB01224CF204011F48FDF71B
:1053100063FB00224FF480711B48FDF75DFB41F6F3
:1053200010100190012002900020039003200490AF
:1053300001A91548FDF7B6F904200190112002904B
:10534000002003900320049001A91048FDF7AAF95A
:105350004FF4404001900120029000200390032070
:10536000049001A90948FDF79DF94FF400700190E0
:10537000002002900120039001A90348FDF792F953
:1053800005B000BD0010024000080140000C0140C3
:1053900010B50B480B4908600B48486000210948CC
:1053A0008160C1604FF480410161002141618161F0
:1053B000C1610162FDF71CFB08B1FCF7BBFB10BD2E
:1053C00000540040B4010020801A060010B50E48B9
:1053D0000E4908604FF48270486000210B488160DC
:1053E000C160016141614FF4007181611021C161AF
:1053F00000210162416281620A21C162FEF736FB2F
:1054000008B1FCF797FB10BD0030014008020020F6
:1054100000B595B0002011901290139014900F9049
:1054200010901C2108A8FAF7F2FE20216846FAF72E
:10543000EEFE2B482B4908600320486000212948D4
:10544000816040F2E731C160002101614161816109
:10545000FEF768FD08B1FCF76DFB4FF4805011902A
:1054600011A92048FEF7AAFD08B1FCF763FB1D480F
:10547000FEF73CFF08B1FCF75DFB00200F90109099
:105480000FA91848FEF70CFD08B1FCF753FB60208C
:105490000890002009900A900B900C900D900E90AF
:1054A000082208A90F48FEF79FFE08B1FCF742FB4F
:1054B0000020009001900290039004904FF400505F
:1054C00005900020079069460648FEF7AFFC08B13A
:1054D000FCF730FB0348FEF7F7FD15B000BD0000F8
:1054E000002C01406002002000B589B00020079028
:1054F00008901C216846FAF78AFE4FF08040174951
:1055000008600320486000211448816040F2E731C0
:10551000C160002101618161FEF7E8FE08B1FCF77E
:1055200009FB00200790089007A90C48FEF7B8FC7B
:1055300008B1FCF7FFFA6020009000200190029073
:105540000490042269460548FEF74EFE08B1FCF7B8
:10555000F1FA0248FEF7B8FD09B000BDA80200202C
:1055600000B589B00020079008901C216846FAF722
:105570004EFE18481849086003204860002116486C
:10558000816040F2E731C160002101618161FEF775
:10559000ADFE08B1FCF7CEFA00200790089007A9ED
:1055A0000D48FEF77DFC08B1FCF7C4FA60200090BE
:1055B0000020019002900490002269460648FEF700
:1055C00013FE08B1FCF7B6FA0348FEF77DFD09B0FB
:1055D00000BD000000040040F002002000B589B0CA
:1055E0000020079008901C216846FAF710FE184822
:1055F000184908600320486000211648816040F285
:10560000E731C160002101618161FEF76FFE08B1E1
:10561000FCF790FA00200790089007A90D48FEF7C4
:105620003FFC08B1FCF786FA602000900020019052
:10563000029004900C2269460648FEF7D5FD08B199
:10564000FCF778FA0348FEF73FFD09B000BD000003
:10565000000800403803002010B50B480B490860D3
:105660004FF4E1304860002108488160C160016169
:105670000C21416100218161C161FEF713FF08B176
:10568000FCF758FA10BD00000044004080030020E1
:1056900000BFFEE700BFFEE72DE9F05F04464FF0D4
:1056A0007F594FF07C512046FAF724FE824625466A
:1056B0002E460C48A0EB6606354629465046FAF7BA
:1056C00019FE83462946FAF715FE80464946FAF741
:1056D0000EFE07462946FAF70DFE05462846BDE8A8
:1056E000F09F0000DF59375F08B508490968C9080D
:1056F0004FF47A72B1FBF2F14143009100BF00BF59
:1057000000994A1E00920029F9D108BD0C00002022
:10571000F8B504460E4615463346012202212046BE
:10572000009500F017F828B1606D40F0200060652A
:105730000320F8BD3346002280212046009500F06A
:1057400009F828B1606D40F0200060650320F0E7A3
:105750000020EEE72DE9F84F04460D4690461E4620
:10576000DDF82890FDF73EF9A0EB0900371AFDF7A8
:1057700039F982462C480068C0F3CB30784300905A
:1057800045E0701C002842D0FDF72CF9A0EB0A0080
:10579000B84200D2A7BB2068406820F0E000216832
:1057A00048606068B0F5827F0DD1A068B0F5004F09
:1057B00003D0A068B0F5806F05D12068006820F0A4
:1057C000400021680860A06AB0F5005F0DD100BFFD
:1057D0002068006820F40050216808602068006894
:1057E00040F400502168086000BF012084F8510097
:1057F00000BF002084F8500000BF0320BDE8F88FF0
:10580000FFE7009800B900270098401E009020682C
:1058100080682840A84201D1012000E000204045D6
:10582000AFD10020EAE700000C0000201CB50446C0
:1058300001F0E6FD1748042100238A01CDE900109C
:1058400015A1194801F056FF1848032100234FF411
:105850008072CDE9001016A1194801F04BFF1948DC
:1058600002210023CA01CDE9001017A11A4801F056
:1058700041FF1A48022100238022CDE9001018A11F
:105880001C4801F037FF002001F028FE01F0CAFD9E
:105890001CBD0000C40000204170705F5461736B38
:1058A0005F324D53000000008D190008C800002031
:1058B0004170705F5461736B5F344D5300000000A2
:1058C000C9190008CC0000204170705F5461736BEF
:1058D0005F35304D53000000E5190008D00000206E
:1058E0004170705F5461736B5F31303030304D53B5
:1058F000000000006519000810B5FDF707FC01F075
:1059000067FF012801D001F0DBFE10BD00B593B0A8
:10591000282109A8FAF77BFC142104A8FAF777FCE0
:105920000020009001900290039001200990000453
:105930000A9000200B9001200D9002201090C103CE
:1059400011914FF4E011129109A8FDF75DFE08B125
:10595000FCF7F0F80F20049002200590002006903C
:105960004FF48060079000200890022104A8FDF702
:1059700027FD08B1FCF7DEF80220009080030290BA
:105980006846FDF785FC08B1FCF7D4F813B000BDFC
:105990007047000010B502681C4B984208D0B0F167
:1059A000804F05D01A4B984202D01A4B984203D12F
:1059B00022F070024B681A43144B984208D0B0F1A1
:1059C000804F05D0124B984202D0124B984203D11F
:1059D00022F44072CB681A4322F080034C6943EAF8
:1059E000040202608B68C3620B688362074B9842B3
:1059F00001D10B69036301234361036903F00103D0
:105A00001BB1036923F00103036110BD002C0140A9
:105A1000000400400008004030B501F01F050124DB
:105A200004FA05F3046A9C430462046A01F01F054A
:105A300002FA05F52C43046230BD30B50C4681688E
:105A400021F47F4142EA032525432943816030BD8B
:105A50000A46816821F0700142F007031943816012
:105A60007047000030B5026A056A25F0010505623D
:105A70004368846924F0700424F003040D682C4307
:105A800022F002028D682A430D4DA84206D100BFC4
:105A900022F00802CD682A4322F00402084DA842F1
:105AA00007D123F4807323F400734D692B438D6970
:105AB0002B43436084614D684563026230BD000042
:105AC000002C014030B5026A056A25F01005056218
:105AD0004368846924F4E04424F440740D6844EA83
